201209SEM   ES    02000Box Elder County          00002951521
201209SEM   ES    03038Logan                     00006163118
201209SEM   ES    06000Davis County              00008152199
201209SEM   ES    06008Clearfield                00001625206
201209SEM   ES    06030Layton                    00004043333
201209SEM   ES    18019Bluffdale                 00000471657
201209SEM   ES    18020Cottonwood Heights        00002563141
201209SEM   ES    18060Herriman                  00000985870
201209SEM   ES    18118Riverton                  00002349002
201209SEM   ES    18122Salt Lake City            00018792644
201209SEM   ES    18142Taylorsville              00003429151
201209SEM   ES    19000San Juan County           00000563602
201209SEM   ES    22000Summit County             00003141844
201209SEM   ES    24000Uintah County             00003716331
201209SEM   ES    25070Lindon                    00000786567
201209SEM   ES    25083Orem                      00005321620
201209SEM   ES    25088Pleasant Grove            00001706648
201209SEM   ES    25090Provo                     00005337672
201209SEM   ES    25106Springville               00002021959
201209SEM   ES    26000Wasatch County            00001442453
201209SEM   ES    27020St. George                00007846178
201209SEM   ES    29000Weber County              00014622936
201209SEM   ES    04000Carbon County             00001379527
201209SEM   ES    08000Emery County              00000664816
201209SEM   ES    09000Garfield County           00000322402
201209SEM   ES    11000Iron County               00002551991
201209SEM   ES    13000Kane County               00000464619
201209SEM   ES    14000Millard County            00000771452
201209SEM   ES    17000Rich County               00000017043
201209SEM   ES    20000Sanpete County            00001073347
201209SEM   ES    23000Tooele County             00003192757
201209SEM   ES    27035Hildale                   00000016550
201209SEM   ES    01000Beaver County             00000394886
201209SEM   ES    21000Sevier County             00001490649
201209SEM   ES    05000Daggett County            00000059450
201209SEM   ES    10000Grand County              00000614237
201209SEM   ES    12000Juab County               00000578773
201209SEM   ES    17001Garden City               00000043037
201209SEM   ES    17002Laketown                  00000018154
201209SEM   ES    17005Randolph                  00000038122
201209SEM   ES    17010Woodruff                  00000020648
201209SEM   ES    22900Snyderville Basin Tr      00000288239
201209SEM   ES    18999Salt Lake County/VECC     00035346198
201209SEM   ES    29037Roy                       00000000741
201209SMT   TL    01002Beaver City               00000391145
201209SMT   TL    01008Milford                   00000253535
201209SMT   TL    01009Minersville               00000089248
201209SMT   TL    02004Bear River                00000070097
201209SMT   TL    02017Brigham City              00002030903
201209SMT   TL    02041Fielding                  00000052918
201209SMT   TL    02044Garland                   00000234569
201209SMT   TL    02069Mantua                    00000104022
201209SMT   TL    02092Portage                   00000028138
201209SMT   TL    02113Tremonton                 00001050321
201209SMT   TL    02120Willard                   00000198537
201209SMT   TL    03014Clarkston                 00000059716
201209SMT   TL    03033Hyrum                     00000181670
201209SMT   TL    03038Logan                     00005676299
201209SMT   TL    03044Millville                 00000159288
201209SMT   TL    03056Providence                00000724771
201209SMT   TL    03059Richmond                  00000271589
201209SMT   TL    03060River Heights             00000182346
201209SMT   TL    03062Smithfield                00000991162
201209SMT   TL    03076Wellsville                00000351876
201209SMT   TL    03098Nibley                    00000387316
201209SMT   TL    04016Helper                    00000280604
201209SMT   TL    04035Price                     00001281529
201209SMT   TL    04046Sunnyside                 00000017903
201209SMT   TL    04053Wellington                00000197643
201209SMT   TL    04058East Carbon               00000116120
201209SMT   TL    06006Centerville               00002099456
201209SMT   TL    06008Clearfield                00003561359
201209SMT   TL    06017Farmington                00002464630
201209SMT   TL    06026Kaysville                 00003947333
201209SMT   TL    06030Layton                    00008424398
201209SMT   TL    06035North Salt Lake           00002445466
201209SMT   TL    06045South Weber               00000662839
201209SMT   TL    06048Sunset                    00000540558
201209SMT   TL    06049Syracuse                  00002505537
201209SMT   TL    06056West Point                00001030502
201209SMT   TL    06057Woods Cross               00000716604
201209SMT   TL    06059Clinton                   00002113571
201209SMT   TL    06061West Bountiful            00000686224
201209SMT   TL    07008Duchesne City             00000414456
201209SMT   TL    07017Myton                     00000186052
201209SMT   TL    07019Roosevelt                 00001775773
201209SMT   TL    08001Castle Dale               00000228868
201209SMT   TL    08009Ferron                    00000057832
201209SMT   TL    08016Orangeville               00000348100
201209SMT   TL    09002Boulder                   00000016887
201209SMT   TL    09005Escalante                 00000088825
201209SMT   TL    09006Hatch                     00000006930
201209SMT   TL    09011Panguitch                 00000139997
201209SMT   TL    10011Moab                      00000771195
201209SMT   TL    11003Cedar City                00003724118
201209SMT   TL    11005Enoch                     00000431572
201209SMT   TL    11012Kanarraville              00000008979
201209SMT   TL    11019Parowan                   00000314497
201209SMT   TL    11028Brian Head                00000044403
201209SMT   TL    12009Eureka                    00000018940
201209SMT   TL    12019Levan                     00000087063
201209SMT   TL    12026Nephi                     00000751891
201209SMT   TL    13004Kanab                     00000688260
201209SMT   TL    14010Delta                     00000489594
201209SMT   TL    14014Fillmore                  00000238288
201209SMT   TL    14023Hinckley                  00000051278
201209SMT   TL    14040Scipio                    00000041285
201209SMT   TL    15007Morgan City               00000378120
201209SMT   TL    17005Randolph                  00000071496
201209SMT   TL    17010Woodruff                  00000034158
201209SMT   TL    18003Alta                      00000041056
201209SMT   TL    18019Bluffdale                 00001204588
201209SMT   TL    18039Draper                    00006566724
201209SMT   TL    18060Herriman                  00002111570
201209SMT   TL    18065Holladay                  00003205037
201209SMT   TL    18093Midvale                   00004718086
201209SMT   TL    18096Murray                    00009120455
201209SMT   TL    18118Riverton                  00005092951
201209SMT   TL    18122Salt Lake City            00048888682
201209SMT   TL    18131Sandy                     00014438866
201209SMT   TL    18138South Jordan              00007539139
201209SMT   TL    18139South Salt Lake           00004504186
201209SMT   TL    18142Taylorsville              00005761871
201209SMT   TL    18155West Jordan               00013021401
201209SMT   TL    18167West Valley City          00016457752
201209SMT   TL    19009Monticello                00000180338
201209SMT   TL    20004Centerfield               00000096277
201209SMT   TL    20008Ephraim                   00000370313
201209SMT   TL    20014Gunnison                  00000161743
201209SMT   TL    20021Mayfield                  00000042732
201209SMT   TL    20023Moroni                    00000152168
201209SMT   TL    20024Mt. Pleasant              00000359154
201209SMT   TL    21007Central Valley            00000069449
201209SMT   TL    21014Elsinore                  00000104575
201209SMT   TL    21031Monroe                    00000214150
201209SMT   TL    21033Redmond                   00000109799
201209SMT   TL    21034Richfield                 00001053174
201209SMT   TL    22029Oakley                    00000180492
201209SMT   TL    22030Park City                 00002744381
201209SMT   TL    23023Grantsville               00001047223
201209SMT   TL    23046Stockton                  00000111965
201209SMT   TL    23048Tooele City               00005644612
201209SMT   TL    23052Wendover                  00000090207
201209SMT   TL    24014Naples                    00000214792
201209SMT   TL    24024Vernal                    00002939954
201209SMT   TL    24028Ballard                   00000108781
201209SMT   TL    25001Alpine                    00000736810
201209SMT   TL    25002American Fork             00003691090
201209SMT   TL    25030Eagle Mountain            00001670230
201209SMT   TL    25066Lehi                      00005337282
201209SMT   TL    25070Lindon                    00001828911
201209SMT   TL    25073Mapleton                  00000904284
201209SMT   TL    25083Orem                      00011558959
201209SMT   TL    25085Payson                    00002024808
201209SMT   TL    25088Pleasant Grove            00003569760
201209SMT   TL    25090Provo                     00012079249
201209SMT   TL    25096Salem                     00000755578
201209SMT   TL    25097Santaquin                 00000799080
201209SMT   TL    25098Saratoga Springs          00001507101
201209SMT   TL    25099Highland                  00001845194
201209SMT   TL    25103Spanish Fork              00003297961
201209SMT   TL    25106Springville               00003428651
201209SMT   TL    25117Vineyard                  00000030679
201209SMT   TL    25123Cedar Hills               00000876955
201209SMT   TL    25124Elk Ridge                 00000257635
201209SMT   TL    25125Woodland Hills            00000150966
201209SMT   TL    26003Charleston                00000071805
201209SMT   TL    26005Daniel                    00000085948
201209SMT   TL    26008Heber                     00001512113
201209SMT   TL    26009Independence              00000010553
201209SMT   TL    26011Midway                    00000579017
201209SMT   TL    26020Hideout                   00000000850
201209SMT   TL    27002Apple Valley              00000033674
201209SMT   TL    27005Enterprise                00000188985
201209SMT   TL    27008Hurricane                 00001493113
201209SMT   TL    27010Ivins                     00000721373
201209SMT   TL    27011La Verkin                 00000399769
201209SMT   TL    27012Leeds                     00000121431
201209SMT   TL    27020St. George                00010083739
201209SMT   TL    27021Santa Clara               00000693194
201209SMT   TL    27023Springdale                00000113060
201209SMT   TL    27024Toquerville               00000113231
201209SMT   TL    27027Washington City           00001162386
201209SMT   TL    27035Hildale                   00000039524
201209SMT   TL    29016Harrisville               00000691108
201209SMT   TL    29018Hooper                    00000781302
201209SMT   TL    29019Huntsville                00000054896
201209SMT   TL    29026North Ogden               00002066488
201209SMT   TL    29027Ogden                     00012213483
201209SMT   TL    29030Plain City                00000573176
201209SMT   TL    29031Pleasant View             00000844304
201209SMT   TL    29037Roy                       00004419252
201209SMT   TL    29040South Ogden               00001965436
201209SMT   TL    29043Uintah                    00000141430
201209SMT   TL    29049Washington Terrace        00001039125
201209SMT   TL    29051West Haven                00001202222
201209SPF   FG    01000Beaver County             00000570747
201209SPF   FG    02000Box Elder County          00003464374
201209SPF   FG    03000Cache County              00006756036
201209SPF   FG    04000Carbon County             00002144292
201209SPF   FG    06000Davis County              00020959816
201209SPF   FG    07000Duchesne County           00000871648
201209SPF   FG    08000Emery County              00000065827
201209SPF   FG    09000Garfield County           00000166453
201209SPF   FG    10000Grand County              00000904540
201209SPF   FG    11000Iron County               00003211319
201209SPF   FG    12000Juab County               00000580018
201209SPF   FG    13000Kane County               00000337405
201209SPF   FG    15000Morgan County             00000129334
201209SPF   FG    18000Salt Lake County          00125052448
201209SPF   FG    19000San Juan County           00000397239
201209SPF   FG    20000Sanpete County            00000398031
201209SPF   FG    21000Sevier County             00001174530
201209SPF   FG    22000Summit County             00026559143
201209SPF   FG    23000Tooele County             00002905447
201209SPF   FG    24000Uintah County             00002124647
201209SPF   FG    25000Utah County               00034321530
201209SPF   FG    26000Wasatch County            00002619445
201209SPF   FG    27000Washington County         00011207074
201209SPF   FG    28000Wayne County              00000009072
201209SPF   FG    29000Weber County              00015860933
201209STC   TN    18139South Salt Lake           00017769309
201209STC   TN    29036Riverdale                 00007877862
201209STC   CO    01000Beaver County             00001555367
201209STC   CO    02000Box Elder County          00011493600
201209STC   CO    03000Cache County              00026948313
201209STC   CO    04000Carbon County             00008226222
201209STC   CO    05000Daggett County            00000228648
201209STC   CO    06000Davis County              00077071842
201209STC   CO    07000Duchesne County           00009401967
201209STC   CO    08000Emery County              00003166979
201209STC   CO    09000Garfield County           00000828603
201209STC   CO    10000Grand County              00002895816
201209STC   CO    11000Iron County               00011762351
201209STC   CO    12000Juab County               00002157928
201209STC   CO    13000Kane County               00001694410
201209STC   CO    14000Millard County            00002990666
201209STC   CO    15000Morgan County             00001921540
201209STC   CO    16000Piute County              00000275169
201209STC   CO    17000Rich County               00000429652
201209STC   CO    18000Salt Lake County          00335164974
201209STC   CO    19000San Juan County           00003245342
201209STC   CO    20000Sanpete County            00005553905
201209STC   CO    21000Sevier County             00005557984
201209STC   CO    22000Summit County             00023327067
201209STC   CO    23000Tooele County             00013766983
201209STC   CO    24000Uintah County             00019800090
201209STC   CO    25000Utah County               00130321052
201209STC   CO    26000Wasatch County            00006184119
201209STC   CO    27000Washington County         00038075569
201209STC   CO    28000Wayne County              00000614437
201209STC   CO    29000Weber County              00061618126
201209STC   MF    25000Utah County               00103409502
201209STC   HT    21035Salina                    00001304132
201209STC   HT    27021Santa Clara               00000397621
201209STC   HT    26008Heber                     00002773439
201209STC   HT    04035Price                     00007271338
201209STC   HT    21034Richfield                 00002971929
201209STC   HT    26011Midway                    00000464941
201209STC   HT    27010Ivins                     00000614590
201209STC   HT    10011Moab                      00002179140
201209STC   HT    27008Hurricane                 00002495924
201209STC   HT    24014Naples                    00011239027
201209STC   HT    27011La Verkin                 00000199373
201209STC   HT    24024Vernal                    00012215245
201209STC   HT    27020St. George                00026636458
201209STC   HT    11028Brian Head                00000564100
201209STC   HT    19002Blanding                  00000598850
201209STC   HT    20014Gunnison                  00000349171
201209STC   HT    12026Nephi                     00000912134
201209STC   HT    20008Ephraim                   00001134038
201209STC   HT    07019Roosevelt                 00005517280
201209STC   HT    20024Mt. Pleasant              00000375945
201209STC   HT    04053Wellington                00000865630
201209STC   HT    19009Monticello                00000318372
201209STC   HT    08011Green River               00000317761
201209STC   HT    27027Washington City           00005086249
201209STC   HT    20009Fairview                  00000138826
201209STC   HC    25000Utah County               00037371054
201209STC   LS    01000Beaver County             00001122789
201209STC   LS    01002Beaver City               00003266265
201209STC   LS    01008Milford                   00001221668
201209STC   LS    01009Minersville               00000611289
201209STC   LS    02000Box Elder County          00007550299
201209STC   LS    02004Bear River                00000562176
201209STC   LS    02017Brigham City              00016350688
201209STC   LS    02025Corinne                   00001066456
201209STC   LS    02032Deweyville                00000250931
201209STC   LS    02035Elwood                    00000817343
201209STC   LS    02041Fielding                  00000312037
201209STC   LS    02044Garland                   00001618523
201209STC   LS    02054Honeyville                00000965050
201209STC   LS    02057Howell                    00000165064
201209STC   LS    02069Mantua                    00000461547
201209STC   LS    02086Perry                     00005538619
201209STC   LS    02090Plymouth                  00000455278
201209STC   LS    02092Portage                   00000157615
201209STC   LS    02100Snowville                 00000258732
201209STC   LS    02113Tremonton                 00008125730
201209STC   LS    02120Willard                   00001316980
201209STC   LS    03000Cache County              00005019209
201209STC   LS    03001Amalga                    00000342984
201209STC   LS    03014Clarkston                 00000430663
201209STC   LS    03017Cornish                   00000197155
201209STC   LS    03032Hyde Park                 00003097787
201209STC   LS    03033Hyrum                     00005949003
201209STC   LS    03036Lewiston                  00001353195
201209STC   LS    03038Logan                     00054019206
201209STC   LS    03041Mendon                    00000835535
201209STC   LS    03044Millville                 00001236688
201209STC   LS    03047Newton                    00000566758
201209STC   LS    03049North Logan               00011271282
201209STC   LS    03053Paradise                  00000642217
201209STC   LS    03056Providence                00005956489
201209STC   LS    03059Richmond                  00001770056
201209STC   LS    03060River Heights             00001135184
201209STC   LS    03062Smithfield                00007593451
201209STC   LS    03076Wellsville                00002399967
201209STC   LS    03081Trenton                   00000303673
201209STC   LS    03098Nibley                    00003669588
201209STC   LS    04000Carbon County             00008018125
201209STC   LS    04016Helper                    00001883701
201209STC   LS    04035Price                     00018732914
201209STC   LS    04040Scofield                  00000024184
201209STC   LS    04046Sunnyside                 00000375352
201209STC   LS    04053Wellington                00002459160
201209STC   LS    04058East Carbon               00001410478
201209STC   LS    05000Daggett County            00000650985
201209STC   LS    05006Manila                    00000263585
201209STC   LS    06000Davis County              00003018750
201209STC   LS    06004Bountiful                 00040208858
201209STC   LS    06006Centerville               00021003437
201209STC   LS    06008Clearfield                00024227393
201209STC   LS    06010Fruit Heights             00003441873
201209STC   LS    06017Farmington                00015544181
201209STC   LS    06026Kaysville                 00021941241
201209STC   LS    06030Layton                    00080782165
201209STC   LS    06035North Salt Lake           00017491774
201209STC   LS    06045South Weber               00003960187
201209STC   LS    06048Sunset                    00004277822
201209STC   LS    06049Syracuse                  00020853894
201209STC   LS    06056West Point                00006135843
201209STC   LS    06057Woods Cross               00012412979
201209STC   LS    06059Clinton                   00018741505
201209STC   LS    06061West Bountiful            00012285674
201209STC   LS    06300Hill AFB Davis            00000098623
201209STC   LS    07000Duchesne County           00018600935
201209STC   LS    07001Altamont                  00001372711
201209STC   LS    07008Duchesne City             00001816429
201209STC   LS    07017Myton                     00002470548
201209STC   LS    07019Roosevelt                 00013222275
201209STC   LS    07020Tabiona                   00000123841
201209STC   LS    08000Emery County              00002710643
201209STC   LS    08001Castle Dale               00003000703
201209STC   LS    08003Clawson                   00000106935
201209STC   LS    08004Cleveland                 00000456470
201209STC   LS    08007Elmo                      00000273128
201209STC   LS    08008Emery City                00000221840
201209STC   LS    08009Ferron                    00001131418
201209STC   LS    08011Green River               00001133343
201209STC   LS    08012Huntington                00002358607
201209STC   LS    08016Orangeville               00001278506
201209STC   LS    09000Garfield County           00000968285
201209STC   LS    09001Antimony                  00000081610
201209STC   LS    09002Boulder                   00000159817
201209STC   LS    09004Cannonville               00000119053
201209STC   LS    09005Escalante                 00000692869
201209STC   LS    09006Hatch                     00000094626
201209STC   LS    09008Henrieville               00000152306
201209STC   LS    09011Panguitch                 00001438975
201209STC   LS    09015Tropic                    00000401425
201209STC   LS    10000Grand County              00003983995
201209STC   LS    10005Castle Valley             00000213781
201209STC   LS    10011Moab                      00007385153
201209STC   LS    11000Iron County               00005730740
201209STC   LS    11003Cedar City                00033782142
201209STC   LS    11005Enoch                     00003673742
201209STC   LS    11012Kanarraville              00000255318
201209STC   LS    11018Paragonah                 00000333415
201209STC   LS    11019Parowan                   00002274197
201209STC   LS    11028Brian Head                00000998499
201209STC   LS    12000Juab County               00000891481
201209STC   LS    12009Eureka                    00000424216
201209STC   LS    12019Levan                     00000528292
201209STC   LS    12024Mona                      00001311043
201209STC   LS    12026Nephi                     00004971703
201209STC   LS    12030Rocky Ridge               00000499563
201209STC   LS    13000Kane County               00001506417
201209STC   LS    13001Alton                     00000079339
201209STC   LS    13002Glendale                  00000255464
201209STC   LS    13004Kanab                     00004147508
201209STC   LS    13007Orderville                00000468969
201209STC   LS    13010Big Water                 00000319715
201209STC   LS    14000Millard County            00003614560
201209STC   LS    14010Delta                     00003767603
201209STC   LS    14014Fillmore                  00002476241
201209STC   LS    14023Hinckley                  00000441120
201209STC   LS    14024Holden                    00000242992
201209STC   LS    14026Kanosh                    00000305562
201209STC   LS    14028Leamington                00000157490
201209STC   LS    14030Lynndyl                   00000070290
201209STC   LS    14034Meadow                    00000221678
201209STC   LS    14037Oak City                  00000369249
201209STC   LS    14040Scipio                    00000295861
201209STC   LS    15000Morgan County             00004188594
201209STC   LS    15007Morgan City               00003497336
201209STC   LS    16000Piute County              00000178680
201209STC   LS    16003Circleville               00000363023
201209STC   LS    16005Junction                  00000145179
201209STC   LS    16006Kingston                  00000108496
201209STC   LS    16007Marysvale                 00000305261
201209STC   LS    17000Rich County               00000549912
201209STC   LS    17001Garden City               00000503799
201209STC   LS    17002Laketown                  00000166024
201209STC   LS    17005Randolph                  00000361122
201209STC   LS    17010Woodruff                  00000137724
201209STC   LS    18000Salt Lake County          00155533541
201209STC   LS    18003Alta                      00003064698
201209STC   LS    18019Bluffdale                 00006563814
201209STC   LS    18020Cottonwood Heights        00034885835
201209STC   LS    18039Draper                    00052096184
201209STC   LS    18060Herriman                  00016124709
201209STC   LS    18065Holladay                  00022722038
201209STC   LS    18093Midvale                   00037887757
201209STC   LS    18096Murray                    00087834963
201209STC   LS    18118Riverton                  00035068553
201209STC   LS    18122Salt Lake City            00340292258
201209STC   LS    18131Sandy                     00122691592
201209STC   LS    18138South Jordan              00062167334
201209STC   LS    18139South Salt Lake           00059828211
201209STC   LS    18142Taylorsville              00054633976
201209STC   LS    18155West Jordan               00102275086
201209STC   LS    18167West Valley City          00143930936
201209STC   LS    18300Camp Williams City        00000000807
201209STC   LS    19000San Juan County           00007987710
201209STC   LS    19002Blanding                  00003191637
201209STC   LS    19009Monticello                00001801640
201209STC   LS    20000Sanpete County            00002938626
201209STC   LS    20004Centerfield               00000926081
201209STC   LS    20008Ephraim                   00006214098
201209STC   LS    20009Fairview                  00000976595
201209STC   LS    20010Fayette                   00000154714
201209STC   LS    20011Fountain Green            00000703542
201209STC   LS    20014Gunnison                  00002635930
201209STC   LS    20020Manti                     00002336060
201209STC   LS    20021Mayfield                  00000327971
201209STC   LS    20023Moroni                    00001182264
201209STC   LS    20024Mt. Pleasant              00002760934
201209STC   LS    20031Spring City               00000654856
201209STC   LS    20032Sterling                  00000200953
201209STC   LS    20033Wales                     00000202381
201209STC   LS    21000Sevier County             00002371311
201209STC   LS    21001Annabella                 00000514947
201209STC   LS    21002Aurora                    00000967215
201209STC   LS    21007Central Valley            00000348020
201209STC   LS    21014Elsinore                  00000550570
201209STC   LS    21018Glenwood                  00000309989
201209STC   LS    21025Joseph                    00000226353
201209STC   LS    21029Koosharem                 00000214014
201209STC   LS    21031Monroe                    00001485029
201209STC   LS    21033Redmond                   00000542418
201209STC   LS    21034Richfield                 00010505551
201209STC   LS    21035Salina                    00003894580
201209STC   LS    21038Sigurd                    00000301264
201209STC   LS    22000Summit County             00039704647
201209STC   LS    22006Coalville                 00001294313
201209STC   LS    22013Francis                   00000720085
201209STC   LS    22017Henefer                   00000542670
201209STC   LS    22022Kamas                     00001932135
201209STC   LS    22029Oakley                    00001029446
201209STC   LS    22030Park City                 00050582209
201209STC   LS    23000Tooele County             00013139868
201209STC   LS    23023Grantsville               00007367507
201209STC   LS    23037Ophir                     00000024142
201209STC   LS    23046Stockton                  00000648101
201209STC   LS    23048Tooele City               00031485328
201209STC   LS    23050Vernon                    00000710835
201209STC   LS    23052Wendover                  00001120127
201209STC   LS    23056Rush Valley               00000570515
201209STC   LS    24000Uintah County             00028664938
201209STC   LS    24014Naples                    00019819953
201209STC   LS    24024Vernal                    00028142304
201209STC   LS    24028Ballard                   00002570748
201209STC   LS    25000Utah County               00010930689
201209STC   LS    25001Alpine                    00006457920
201209STC   LS    25002American Fork             00038811486
201209STC   LS    25019Cedar Fort                00000247214
201209STC   LS    25030Eagle Mountain            00014010858
201209STC   LS    25035Fairfield                 00000077571
201209STC   LS    25038Genola                    00000881839
201209STC   LS    25043Goshen                    00000583743
201209STC   LS    25066Lehi                      00049249043
201209STC   LS    25070Lindon                    00017731144
201209STC   LS    25073Mapleton                  00005484458
201209STC   LS    25083Orem                      00119706480
201209STC   LS    25085Payson                    00017547424
201209STC   LS    25088Pleasant Grove            00026519016
201209STC   LS    25090Provo                     00105826217
201209STC   LS    25096Salem                     00005198784
201209STC   LS    25097Santaquin                 00006416958
201209STC   LS    25098Saratoga Springs          00015508751
201209STC   LS    25099Highland                  00011400671
201209STC   LS    25103Spanish Fork              00028936790
201209STC   LS    25106Springville               00026988694
201209STC   LS    25117Vineyard                  00001491464
201209STC   LS    25123Cedar Hills               00007631609
201209STC   LS    25124Elk Ridge                 00001614640
201209STC   LS    25125Woodland Hills            00000896914
201209STC   LS    26000Wasatch County            00004680094
201209STC   LS    26003Charleston                00000367118
201209STC   LS    26005Daniel                    00000622824
201209STC   LS    26008Heber                     00012567246
201209STC   LS    26009Independence              00000257016
201209STC   LS    26011Midway                    00003154137
201209STC   LS    26014Wallsburg                 00000189487
201209STC   LS    26020Hideout                   00000397662
201209STC   LS    27000Washington County         00005316133
201209STC   LS    27002Apple Valley              00000466343
201209STC   LS    27005Enterprise                00001256788
201209STC   LS    27008Hurricane                 00013213702
201209STC   LS    27010Ivins                     00005029757
201209STC   LS    27011La Verkin                 00002849997
201209STC   LS    27012Leeds                     00000561372
201209STC   LS    27015New Harmony Town          00000166394
201209STC   LS    27019Rockville                 00000163232
201209STC   LS    27020St. George                00093724709
201209STC   LS    27021Santa Clara               00004182594
201209STC   LS    27023Springdale                00000764295
201209STC   LS    27024Toquerville               00000897978
201209STC   LS    27026Virgin                    00000393370
201209STC   LS    27027Washington City           00021451543
201209STC   LS    27035Hildale                   00001859626
201209STC   LS    28000Wayne County              00000812359
201209STC   LS    28001Bicknell                  00000366507
201209STC   LS    28005Hanksville                00000173895
201209STC   LS    28007Loa                       00000787285
201209STC   LS    28008Lyman                     00000171439
201209STC   LS    28010Torrey                    00000146217
201209STC   LS    29000Weber County              00013899051
201209STC   LS    29012Farr West                 00006165459
201209STC   LS    29016Harrisville               00007886915
201209STC   LS    29018Hooper                    00004908765
201209STC   LS    29019Huntsville                00000647463
201209STC   LS    29022Marriot-Slaterville       00002286254
201209STC   LS    29026North Ogden               00013393828
201209STC   LS    29027Ogden                     00094546974
201209STC   LS    29030Plain City                00003574839
201209STC   LS    29031Pleasant View             00005758846
201209STC   LS    29036Riverdale                 00027081736
201209STC   LS    29037Roy                       00029838169
201209STC   LS    29040South Ogden               00019366059
201209STC   LS    29043Uintah                    00001047896
201209STC   LS    29049Washington Terrace        00006065962
201209STC   LS    29051West Haven                00009996804
201209STC   CT    03000Cache County              00017658944
201209STC   CT    18000Salt Lake County          00250562957
201209STC   CT    29000Weber County              00036052997
201209STC   MA    06000Davis County              00055617038
201209STC   MA    02017Brigham City              00002505915
201209STC   MA    02086Perry                     00001053786
201209STC   MA    02120Willard                   00000130622
201209STC   MA    18000Salt Lake County          00267369442
201209STC   MA    29000Weber County              00048234563
201209STC   MM    03059Richmond                  00000187501
201209STC   MM    03900Cache Valley Transit      00000051052
201209STC   MM    22030Park City                 00026442054
201209STC   MM    25070Lindon                    00000208513
201209STC   MM    02017Brigham City              00003011425
201209STC   MM    25002American Fork             00000169266
201209STC   MM    25001Alpine                    00000000366
201209STC   MM    25030Eagle Mountain            00000029999
201209STC   MM    03032Hyde Park                 00000422561
201209STC   MM    02120Willard                   00000156749
201209STC   MM    03098Nibley                    00000285477
201209STC   MM    25106Springville               00000029021
201209STC   MM    03033Hyrum                     00000789928
201209STC   MM    03062Smithfield                00000902832
201209STC   MM    23048Tooele City               00006328218
201209STC   MM    25099Highland                  00000002240
201209STC   MM    03044Millville                 00000084740
201209STC   MM    03049North Logan               00003096582
201209STC   MM    03056Providence                00000608224
201209STC   MM    03060River Heights             00000073863
201209STC   MM    25103Spanish Fork              00000081183
201209STC   MM    25066Lehi                      00000120308
201209STC   MM    25073Mapleton                  00000012157
201209STC   MM    03036Lewiston                  00000137163
201209STC   MM    25123Cedar Hills               00000001694
201209STC   MM    25096Salem                     00000031212
201209STC   MM    25085Payson                    00000027982
201209STC   MM    03038Logan                     00013321374
201209STC   MM    25097Santaquin                 00000003977
201209STC   MM    25088Pleasant Grove            00000044620
201209STC   MM    02086Perry                     00001264548
201209STC   MM    25090Provo                     00000208664
201209STC   MM    25098Saratoga Springs          00000014738
201209STC   MM    23000Tooele County             00002196906
201209STC   MM    22000Summit County             00012550459
201209STC   MM    25000Utah County               00000000109
201209STC   MT    06000Davis County              00055619101
201209STC   MT    29000Weber County              00048235155
201209STC   MT    25000Utah County               00092085954
201209STC   MT    18000Salt Lake County          00401009502
201209STC   RA    08011Green River               00000530676
201209STC   RA    10011Moab                      00003312358
201209STC   RA    11028Brian Head                00000942087
201209STC   RA    17001Garden City               00000151301
201209STC   RA    18003Alta                      00002837145
201209STC   RA    27023Springdale                00000425071
201209STC   RR    08011Green River               00001061348
201209STC   RR    09002Boulder                   00000050424
201209STC   RR    09011Panguitch                 00000964808
201209STC   RR    09015Tropic                    00000126806
201209STC   RR    10011Moab                      00007284940
201209STC   RR    11028Brian Head                00001884169
201209STC   RR    13004Kanab                     00002660520
201209STC   RR    13007Orderville                00000200990
201209STC   RR    17001Garden City               00000318001
201209STC   RR    18003Alta                      00005674309
201209STC   RR    22030Park City                 00096393608
201209STC   RR    26009Independence              00000356595
201209STC   RR    26011Midway                    00001701360
201209STC   RR    27023Springdale                00000935024
201209STC   MH    01002Beaver City               00002393212
201209STC   RH    13000Kane County               00004472777
201209STC   RH    05000Daggett County            00000550418
201209STC   RH    24000Uintah County             00000295357
201209STC   SM    06000Davis County              00011106975
201209STC   SM    29000Weber County              00009607319
201209STC   TO    02100Snowville                 00000280690
201209STC   CZ    22000Summit County             00013470512
201209STC   CZ    24000Uintah County             00011527289
201209STC   CZ    29000Weber County              00019287538
201209STC   CZ    18000Salt Lake County          00133673294
201209STC   CZ    03000Cache County              00007070767
201209STC   MZ    06006Centerville               00001979729
201209STC   MZ    21033Redmond                   00000023338
201209STC   MZ    06004Bountiful                 00002613867
201209STC   MZ    07019Roosevelt                 00001838072
201209STC   MZ    19009Monticello                00000106158
201209STC   MZ    19002Blanding                  00000199674
201209STC   MZ    11003Cedar City                00002833421
201209STC   MZ    21002Aurora                    00000074900
201209STC   MZ    06035North Salt Lake           00001526469
201209STC   MZ    25083Orem                      00011784307
201209STC   MZ    04035Price                     00002430478
201209STC   MZ    06061West Bountiful            00001413669
201209STC   MZ    23048Tooele City               00002109584
201209STC   MZ    25123Cedar Hills               00000255647
201209STC   MZ    07008Duchesne City             00000148283
201209STC   MZ    11028Brian Head                00000188094
201209STC   MZ    21035Salina                    00000434850
201209STC   MZ    06057Woods Cross               00001327792
201209STC   MZ    21034Richfield                 00001001161
201209STE   ET    07008Duchesne City             00000576166
201209STE   ET    07017Myton                     00000132894
201209STE   ET    07019Roosevelt                 00001780231
201209STE   ET    02017Brigham City              00000122305
201209STE   ET    03033Hyrum                     00000142609
201209STE   ET    03038Logan                     00002697214
201209STE   ET    03062Smithfield                00000332311
201209STE   ET    04035Price                     00000146978
201209STE   ET    06006Centerville               00000099081
201209STE   ET    06008Clearfield                00000626278
201209STE   ET    06030Layton                    00000370259
201209STE   ET    11003Cedar City                00000463920
201209STE   ET    18093Midvale                   00000082433
201209STE   ET    18122Salt Lake City            00006722418
201209STE   ET    18131Sandy                     00000124834
201209STE   ET    18139South Salt Lake           00000393128
201209STE   ET    18155West Jordan               00001435550
201209STE   ET    18167West Valley City          00002579471
201209STE   ET    20008Ephraim                   00000189947
201209STE   ET    25002American Fork             00000377027
201209STE   ET    25066Lehi                      00001198209
201209STE   ET    25085Payson                    00000170841
201209STE   ET    25090Provo                     00002535712
201209STE   ET    25103Spanish Fork              00000946051
201209STE   ET    25106Springville               00000658294
201209STE   ET    29027Ogden                     00003245505
201209STE   ET    19009Monticello                00000873965
201209STE   ET    25073Mapleton                  00000027538
201209STE   ET    25096Salem                     00000044190
201209STE   ET    25097Santaquin                 00000015442
201209STE   ET    25124Elk Ridge                 00000458766
201209STE   ET    25125Woodland Hills            00000342639
201209STE   ET    02113Tremonton                 00000666230
201209STE   ET    27008Hurricane                 00000330216
201209STE   ET    27020St. George                00006684098
201209STE   ET    27027Washington City           00001166796
201209STE   ET    09005Escalante                 00000223419
201209STE   ET    13004Kanab                     00001128319
201209STE   ET    27035Hildale                   00000733531
201209STE   ET    18096Murray                    00000626645
201209STE   ET    18118Riverton                  00000152751
201209STL   FF    06000Davis County              00000385876
201209STL   FF    10000Grand County              00000006575
201209STL   FF    18000Salt Lake County          00046928191
201209STL   FF    21000Sevier County             00000002976
201209STL   FF    24000Uintah County             00000045200
201209STL   FF    25000Utah County               00001005675
201209STL   FF    27000Washington County         00000669592
201209STL   FF    29000Weber County              00000368293
201209STL   FP    06000Davis County              00003046800
201209STL   FP    15000Morgan County             00000083007
201209STL   FP    18000Salt Lake County          00052825786
201209STL   FP    21000Sevier County             00000185132
201209STL   FP    25000Utah County               00005466923
201209STL   FP    27000Washington County         00001835693
201209STL   FP    29000Weber County              00002370797
201209STR   TR    01000Beaver County             00000826145
201209STR   TR    02000Box Elder County          00000748676
201209STR   TR    03000Cache County              00001782540
201209STR   TR    04000Carbon County             00001406279
201209STR   TR    05000Daggett County            00000047920
201209STR   TR    06000Davis County              00006771580
201209STR   TR    07000Duchesne County           00000621613
201209STR   TR    08000Emery County              00000512649
201209STR   TR    09000Garfield County           00000646179
201209STR   TR    10000Grand County              00002021301
201209STR   TR    11000Iron County               00003672542
201209STR   TR    12000Juab County               00000199942
201209STR   TR    13000Kane County               00001728333
201209STR   TR    14000Millard County            00000509725
201209STR   TR    15000Morgan County             00000004428
201209STR   TR    16000Piute County              00000012354
201209STR   TR    17000Rich County               00000040707
201209STR   TR    18000Salt Lake County          00106571908
201209STR   TR    19000San Juan County           00000832705
201209STR   TR    20000Sanpete County            00000178879
201209STR   TR    21000Sevier County             00001808431
201209STR   TR    22000Summit County             00101919999
201209STR   TR    23000Tooele County             00001829768
201209STR   TR    24000Uintah County             00006140323
201209STR   TR    25000Utah County               00013834207
201209STR   TR    26000Wasatch County            00014370573
201209STR   TR    27000Washington County         00014631617
201209STR   TR    28000Wayne County              00000183589
201209STR   TA    07019Roosevelt                 00000048179
201209STR   TA    10011Moab                      00000291017
201209STR   TA    18131Sandy                     00001103898
201209STR   TA    18167West Valley City          00000581931
201209STR   TA    25090Provo                     00000752905
201209STR   TA    25106Springville               00000014288
201209STR   TM    01008Milford                   00000031829
201209STR   TM    02017Brigham City              00000050048
201209STR   TM    02086Perry                     00000023019
201209STR   TM    02113Tremonton                 00000102538
201209STR   TM    03038Logan                     00000365618
201209STR   TM    03049North Logan               00000200947
201209STR   TM    04035Price                     00000312812
201209STR   TM    06008Clearfield                00000030717
201209STR   TM    06017Farmington                00000000178
201209STR   TM    06030Layton                    00001081733
201209STR   TM    06035North Salt Lake           00000135553
201209STR   TM    06057Woods Cross               00000230813
201209STR   TM    06061West Bountiful            00000110219
201209STR   TM    07019Roosevelt                 00000096359
201209STR   TM    08011Green River               00000117770
201209STR   TM    10011Moab                      00000582035
201209STR   TM    13002Glendale                  00000001823
201209STR   TM    13004Kanab                     00000316897
201209STR   TM    14010Delta                     00000085001
201209STR   TM    14014Fillmore                  00000084907
201209STR   TM    18020Cottonwood Heights        00000132340
201209STR   TM    18039Draper                    00000202678
201209STR   TM    18065Holladay                  00000650390
201209STR   TM    18093Midvale                   00000332272
201209STR   TM    18096Murray                    00000663358
201209STR   TM    18122Salt Lake City            00019188568
201209STR   TM    18131Sandy                     00002207796
201209STR   TM    18139South Salt Lake           00000278036
201209STR   TM    18155West Jordan               00000226625
201209STR   TM    18167West Valley City          00001163858
201209STR   TM    19002Blanding                  00000033236
201209STR   TM    19009Monticello                00000029584
201209STR   TM    21034Richfield                 00000309934
201209STR   TM    21035Salina                    00000076138
201209STR   TM    23048Tooele City               00000343751
201209STR   TM    24014Naples                    00000112937
201209STR   TM    24024Vernal                    00001248036
201209STR   TM    25066Lehi                      00000525245
201209STR   TM    25070Lindon                    00000007839
201209STR   TM    25083Orem                      00000566472
201209STR   TM    25085Payson                    00000050858
201209STR   TM    25090Provo                     00001505810
201209STR   TM    25106Springville               00000028578
201209STR   TM    26008Heber                     00000214897
201209STR   TM    26011Midway                    00000064402
201209STR   TM    27008Hurricane                 00000075317
201209STR   TM    27010Ivins                     00000299249
201209STR   TM    27020St. George                00002474073
201209STR   TM    27023Springdale                00000270852
201209STR   TM    27026Virgin                    00000008648
201209STR   TM    28005Hanksville                00000023380
201209STR   TM    29022Marriot-Slaterville       00000031967
201209STR   TM    29027Ogden                     00000676260
201209STR   TM    29036Riverdale                 00000049778
201209STR   TM    29043Uintah                    00000059582
201209STR   TM    29051West Haven                00000209150
201209STR   TT    18000Salt Lake County          00014750436
