201310SEM   ES    01000Beaver County             00000386303
201310SEM   ES    02000Box Elder County          00002956290
201310SEM   ES    03038Logan                     00006035501
201310SEM   ES    06000Davis County              00008183564
201310SEM   ES    06004Bountiful                 00004849746
201310SEM   ES    06008Clearfield                00001672501
201310SEM   ES    06030Layton                    00004120155
201310SEM   ES    11000Iron County               00002530400
201310SEM   ES    12000Juab County               00000547360
201310SEM   ES    13000Kane County               00000472919
201310SEM   ES    18000Salt Lake County          00011509552
201310SEM   ES    18019Bluffdale                 00000481013
201310SEM   ES    18020Cottonwood Heights        00002507669
201310SEM   ES    18060Herriman                  00001010972
201310SEM   ES    18118Riverton                  00002246027
201310SEM   ES    18122Salt Lake City            00019601340
201310SEM   ES    18142Taylorsville              00003058408
201310SEM   ES    21000Sevier County             00001464136
201310SEM   ES    22000Summit County             00003484414
201310SEM   ES    23000Tooele County             00003263853
201310SEM   ES    24000Uintah County             00003859226
201310SEM   ES    25000Utah County               00013004494
201310SEM   ES    25070Lindon                    00000774345
201310SEM   ES    25083Orem                      00005300337
201310SEM   ES    25088Pleasant Grove            00001727499
201310SEM   ES    25090Provo                     00005023434
201310SEM   ES    25106Springville               00002034496
201310SEM   ES    26000Wasatch County            00001480442
201310SEM   ES    27020St. George                00007811192
201310SEM   ES    29000Weber County              00014770496
201310SEM   ES    04000Carbon County             00001349170
201310SEM   ES    05000Daggett County            00000066640
201310SEM   ES    08000Emery County              00000652976
201310SEM   ES    09000Garfield County           00000327270
201310SEM   ES    10000Grand County              00000603157
201310SEM   ES    14000Millard County            00000771038
201310SEM   ES    17000Rich County               00000018067
201310SEM   ES    17001Garden City               00000045012
201310SEM   ES    17002Laketown                  00000018692
201310SEM   ES    17005Randolph                  00000040074
201310SEM   ES    17010Woodruff                  00000023006
201310SEM   ES    19000San Juan County           00000689366
201310SEM   ES    20000Sanpete County            00001507492
201310SEM   ES    27035Hildale                   00000086991
201310SEM   ES    18999Salt Lake County/VECC     00035155059
201310SMT   TL    01002Beaver City               00000354248
201310SMT   TL    01008Milford                   00000292701
201310SMT   TL    01009Minersville               00000082582
201310SMT   TL    02004Bear River                00000059935
201310SMT   TL    02017Brigham City              00002262845
201310SMT   TL    02041Fielding                  00000050879
201310SMT   TL    02044Garland                   00000211762
201310SMT   TL    02069Mantua                    00000080497
201310SMT   TL    02092Portage                   00000027915
201310SMT   TL    02113Tremonton                 00001017797
201310SMT   TL    02120Willard                   00000185916
201310SMT   TL    03014Clarkston                 00000060005
201310SMT   TL    03033Hyrum                     00000179466
201310SMT   TL    03038Logan                     00005323516
201310SMT   TL    03044Millville                 00000176306
201310SMT   TL    03056Providence                00000642005
201310SMT   TL    03059Richmond                  00000259067
201310SMT   TL    03060River Heights             00000168275
201310SMT   TL    03062Smithfield                00000948377
201310SMT   TL    03076Wellsville                00000347999
201310SMT   TL    03098Nibley                    00000392034
201310SMT   TL    04016Helper                    00000252701
201310SMT   TL    04035Price                     00001185915
201310SMT   TL    04046Sunnyside                 00000017056
201310SMT   TL    04053Wellington                00000169931
201310SMT   TL    04058East Carbon               00000094425
201310SMT   TL    06004Bountiful                 00005374235
201310SMT   TL    06006Centerville               00001939743
201310SMT   TL    06008Clearfield                00003314282
201310SMT   TL    06017Farmington                00002308292
201310SMT   TL    06026Kaysville                 00003789600
201310SMT   TL    06030Layton                    00008098474
201310SMT   TL    06035North Salt Lake           00002328438
201310SMT   TL    06045South Weber               00000625670
201310SMT   TL    06048Sunset                    00000480007
201310SMT   TL    06049Syracuse                  00002402128
201310SMT   TL    06056West Point                00000961118
201310SMT   TL    06057Woods Cross               00000686085
201310SMT   TL    06059Clinton                   00002019735
201310SMT   TL    06061West Bountiful            00000655440
201310SMT   TL    06300Falcon Hill Davis         00000057187
201310SMT   TL    07008Duchesne City             00000401293
201310SMT   TL    07017Myton                     00000221411
201310SMT   TL    07019Roosevelt                 00001954508
201310SMT   TL    08001Castle Dale               00000198236
201310SMT   TL    08009Ferron                    00000058202
201310SMT   TL    08016Orangeville               00000312312
201310SMT   TL    09002Boulder                   00000023257
201310SMT   TL    09005Escalante                 00000112655
201310SMT   TL    09006Hatch                     00000008733
201310SMT   TL    09011Panguitch                 00000153977
201310SMT   TL    10011Moab                      00000770380
201310SMT   TL    11003Cedar City                00003461087
201310SMT   TL    11005Enoch                     00000480841
201310SMT   TL    11019Parowan                   00000271576
201310SMT   TL    11028Brian Head                00000038027
201310SMT   TL    12009Eureka                    00000018295
201310SMT   TL    12019Levan                     00000074066
201310SMT   TL    12026Nephi                     00000775545
201310SMT   TL    13004Kanab                     00000720960
201310SMT   TL    14010Delta                     00000493719
201310SMT   TL    14014Fillmore                  00000228941
201310SMT   TL    14023Hinckley                  00000052605
201310SMT   TL    14040Scipio                    00000036591
201310SMT   TL    15007Morgan City               00000401126
201310SMT   TL    17005Randolph                  00000119685
201310SMT   TL    17010Woodruff                  00000073198
201310SMT   TL    18019Bluffdale                 00000965874
201310SMT   TL    18039Draper                    00005914042
201310SMT   TL    18060Herriman                  00002106176
201310SMT   TL    18065Holladay                  00002967030
201310SMT   TL    18093Midvale                   00004533586
201310SMT   TL    18096Murray                    00008296663
201310SMT   TL    18118Riverton                  00004621257
201310SMT   TL    18122Salt Lake City            00044747436
201310SMT   TL    18131Sandy                     00013248556
201310SMT   TL    18138South Jordan              00007109387
201310SMT   TL    18139South Salt Lake           00004045580
201310SMT   TL    18142Taylorsville              00005453840
201310SMT   TL    18155West Jordan               00011791015
201310SMT   TL    18167West Valley City          00014870132
201310SMT   TL    19009Monticello                00000158870
201310SMT   TL    20004Centerfield               00000144878
201310SMT   TL    20008Ephraim                   00000448592
201310SMT   TL    20014Gunnison                  00000314451
201310SMT   TL    20021Mayfield                  00000074754
201310SMT   TL    20023Moroni                    00000123383
201310SMT   TL    20024Mt. Pleasant              00000343344
201310SMT   TL    21007Central Valley            00000016996
201310SMT   TL    21014Elsinore                  00000090954
201310SMT   TL    21031Monroe                    00000246346
201310SMT   TL    21033Redmond                   00000087594
201310SMT   TL    21034Richfield                 00001046799
201310SMT   TL    22029Oakley                    00000302609
201310SMT   TL    22030Park City                 00002531862
201310SMT   TL    23023Grantsville               00001032602
201310SMT   TL    23046Stockton                  00000103010
201310SMT   TL    23048Tooele City               00004651592
201310SMT   TL    23052Wendover                  00000126062
201310SMT   TL    24014Naples                    00000308809
201310SMT   TL    24024Vernal                    00002837844
201310SMT   TL    24028Ballard                   00000067298
201310SMT   TL    25001Alpine                    00000682939
201310SMT   TL    25002American Fork             00003578463
201310SMT   TL    25030Eagle Mountain            00002161326
201310SMT   TL    25066Lehi                      00005089553
201310SMT   TL    25070Lindon                    00001709739
201310SMT   TL    25073Mapleton                  00000835588
201310SMT   TL    25083Orem                      00010477621
201310SMT   TL    25085Payson                    00001881377
201310SMT   TL    25088Pleasant Grove            00003272364
201310SMT   TL    25090Provo                     00012226102
201310SMT   TL    25096Salem                     00000673017
201310SMT   TL    25097Santaquin                 00000748806
201310SMT   TL    25098Saratoga Springs          00001521445
201310SMT   TL    25099Highland                  00001627575
201310SMT   TL    25103Spanish Fork              00003190586
201310SMT   TL    25106Springville               00003175015
201310SMT   TL    25117Vineyard                  00000024655
201310SMT   TL    25123Cedar Hills               00000841140
201310SMT   TL    25124Elk Ridge                 00000243782
201310SMT   TL    25125Woodland Hills            00000150149
201310SMT   TL    26003Charleston                00000062405
201310SMT   TL    26005Daniel                    00000191218
201310SMT   TL    26008Heber                     00001549950
201310SMT   TL    26009Independence              00000009736
201310SMT   TL    26011Midway                    00000531399
201310SMT   TL    26020Hideout                   00000028873
201310SMT   TL    27002Apple Valley              00000062952
201310SMT   TL    27005Enterprise                00000161040
201310SMT   TL    27008Hurricane                 00001470034
201310SMT   TL    27010Ivins                     00000674806
201310SMT   TL    27011La Verkin                 00000369396
201310SMT   TL    27012Leeds                     00000182933
201310SMT   TL    27020St. George                00009674711
201310SMT   TL    27021Santa Clara               00000608406
201310SMT   TL    27023Springdale                00000097318
201310SMT   TL    27024Toquerville               00000091090
201310SMT   TL    27027Washington City           00001081995
201310SMT   TL    29016Harrisville               00000652143
201310SMT   TL    29018Hooper                    00000748064
201310SMT   TL    29019Huntsville                00000046911
201310SMT   TL    29026North Ogden               00001983600
201310SMT   TL    29027Ogden                     00010988564
201310SMT   TL    29030Plain City                00000546110
201310SMT   TL    29031Pleasant View             00000823692
201310SMT   TL    29037Roy                       00003987358
201310SMT   TL    29040South Ogden               00001986592
201310SMT   TL    29049Washington Terrace        00000997047
201310SMT   TL    29051West Haven                00001206955
201310SPF   FG    01000Beaver County             00000394776
201310SPF   FG    02000Box Elder County          00002441773
201310SPF   FG    03000Cache County              00007429802
201310SPF   FG    04000Carbon County             00001192163
201310SPF   FG    05000Daggett County            00000022474
201310SPF   FG    06000Davis County              00020417912
201310SPF   FG    07000Duchesne County           00000880184
201310SPF   FG    08000Emery County              00000229269
201310SPF   FG    09000Garfield County           00000201762
201310SPF   FG    10000Grand County              00001293182
201310SPF   FG    11000Iron County               00003731028
201310SPF   FG    12000Juab County               00000437237
201310SPF   FG    13000Kane County               00000588586
201310SPF   FG    15000Morgan County             00000119991
201310SPF   FG    17000Rich County               00000013840
201310SPF   FG    18000Salt Lake County          00126220057
201310SPF   FG    19000San Juan County           00000291278
201310SPF   FG    20000Sanpete County            00000342739
201310SPF   FG    21000Sevier County             00000948368
201310SPF   FG    22000Summit County             00028570864
201310SPF   FG    23000Tooele County             00002890816
201310SPF   FG    24000Uintah County             00002442725
201310SPF   FG    25000Utah County               00038521388
201310SPF   FG    26000Wasatch County            00001767560
201310SPF   FG    27000Washington County         00015318046
201310SPF   FG    28000Wayne County              00000017246
201310SPF   FG    29000Weber County              00018260705
201310STC   TN    18139South Salt Lake           00017563425
201310STC   TN    29036Riverdale                 00009698438
201310STC   CO    01000Beaver County             00001634013
201310STC   CO    02000Box Elder County          00012321383
201310STC   CO    03000Cache County              00029640766
201310STC   CO    04000Carbon County             00006778321
201310STC   CO    05000Daggett County            00000455014
201310STC   CO    06000Davis County              00083983078
201310STC   CO    07000Duchesne County           00010545464
201310STC   CO    08000Emery County              00002839040
201310STC   CO    09000Garfield County           00001166481
201310STC   CO    10000Grand County              00003416180
201310STC   CO    11000Iron County               00012370296
201310STC   CO    12000Juab County               00002607156
201310STC   CO    13000Kane County               00001856323
201310STC   CO    14000Millard County            00003423045
201310STC   CO    15000Morgan County             00002194522
201310STC   CO    16000Piute County              00000283430
201310STC   CO    17000Rich County               00000478796
201310STC   CO    18000Salt Lake County          00355787757
201310STC   CO    19000San Juan County           00004190864
201310STC   CO    20000Sanpete County            00005900024
201310STC   CO    21000Sevier County             00005745395
201310STC   CO    22000Summit County             00025678355
201310STC   CO    23000Tooele County             00014420833
201310STC   CO    24000Uintah County             00017459175
201310STC   CO    25000Utah County               00144000315
201310STC   CO    26000Wasatch County            00006467399
201310STC   CO    27000Washington County         00044033207
201310STC   CO    28000Wayne County              00000638613
201310STC   CO    29000Weber County              00066088690
201310STC   MF    25000Utah County               00118322786
201310STC   HT    20014Gunnison                  00000415412
201310STC   HT    21035Salina                    00000728229
201310STC   HT    07019Roosevelt                 00006742994
201310STC   HT    21034Richfield                 00003559939
201310STC   HT    27010Ivins                     00000759238
201310STC   HT    24014Naples                    00008205128
201310STC   HT    19002Blanding                  00000796574
201310STC   HT    27011La Verkin                 00000240964
201310STC   HT    24024Vernal                    00011349402
201310STC   HT    27027Washington City           00005798766
201310STC   HT    11028Brian Head                00000656495
201310STC   HT    26011Midway                    00000609939
201310STC   HT    27008Hurricane                 00003364342
201310STC   HT    20008Ephraim                   00001099417
201310STC   HT    20009Fairview                  00000205697
201310STC   HT    19009Monticello                00000268417
201310STC   HT    26008Heber                     00003315288
201310STC   HT    27020St. George                00032928906
201310STC   HT    20024Mt. Pleasant              00000396791
201310STC   HT    08011Green River               00000420220
201310STC   HT    12026Nephi                     00001802591
201310STC   HT    10011Moab                      00002505937
201310STC   HT    04053Wellington                00000205700
201310STC   HT    27021Santa Clara               00000408506
201310STC   HT    04035Price                     00005366924
201310STC   HC    25000Utah County               00042870448
201310STC   LS    01000Beaver County             00000974524
201310STC   LS    01002Beaver City               00003246721
201310STC   LS    01008Milford                   00001668656
201310STC   LS    01009Minersville               00000650214
201310STC   LS    02000Box Elder County          00007783322
201310STC   LS    02004Bear River                00000646208
201310STC   LS    02017Brigham City              00017672219
201310STC   LS    02025Corinne                   00001219760
201310STC   LS    02032Deweyville                00000245555
201310STC   LS    02035Elwood                    00000807969
201310STC   LS    02041Fielding                  00000346822
201310STC   LS    02044Garland                   00001751319
201310STC   LS    02054Honeyville                00001009065
201310STC   LS    02057Howell                    00000171185
201310STC   LS    02069Mantua                    00000497924
201310STC   LS    02086Perry                     00005619319
201310STC   LS    02090Plymouth                  00000529580
201310STC   LS    02092Portage                   00000174071
201310STC   LS    02100Snowville                 00000202040
201310STC   LS    02113Tremonton                 00009164222
201310STC   LS    02120Willard                   00001445472
201310STC   LS    03000Cache County              00005791659
201310STC   LS    03001Amalga                    00000410679
201310STC   LS    03014Clarkston                 00000482875
201310STC   LS    03017Cornish                   00000209881
201310STC   LS    03032Hyde Park                 00003587737
201310STC   LS    03033Hyrum                     00006014816
201310STC   LS    03036Lewiston                  00001551315
201310STC   LS    03038Logan                     00059547008
201310STC   LS    03041Mendon                    00000919277
201310STC   LS    03044Millville                 00001332062
201310STC   LS    03047Newton                    00000557143
201310STC   LS    03049North Logan               00012483378
201310STC   LS    03053Paradise                  00000644270
201310STC   LS    03056Providence                00006637410
201310STC   LS    03059Richmond                  00002002084
201310STC   LS    03060River Heights             00001246137
201310STC   LS    03062Smithfield                00008286606
201310STC   LS    03076Wellsville                00002561283
201310STC   LS    03081Trenton                   00000320223
201310STC   LS    03098Nibley                    00003978252
201310STC   LS    04000Carbon County             00006440640
201310STC   LS    04016Helper                    00002058808
201310STC   LS    04035Price                     00015779567
201310STC   LS    04040Scofield                  00000032120
201310STC   LS    04046Sunnyside                 00000334010
201310STC   LS    04053Wellington                00001405653
201310STC   LS    04058East Carbon               00001062649
201310STC   LS    05000Daggett County            00001534053
201310STC   LS    05006Manila                    00000286013
201310STC   LS    06000Davis County              00005019718
201310STC   LS    06004Bountiful                 00044804410
201310STC   LS    06006Centerville               00022507279
201310STC   LS    06008Clearfield                00025792723
201310STC   LS    06010Fruit Heights             00003743316
201310STC   LS    06017Farmington                00017246695
201310STC   LS    06026Kaysville                 00024309491
201310STC   LS    06030Layton                    00086546715
201310STC   LS    06035North Salt Lake           00021254248
201310STC   LS    06045South Weber               00004402729
201310STC   LS    06048Sunset                    00004288495
201310STC   LS    06049Syracuse                  00022017588
201310STC   LS    06056West Point                00006706100
201310STC   LS    06057Woods Cross               00014142228
201310STC   LS    06059Clinton                   00020310773
201310STC   LS    06061West Bountiful            00012792390
201310STC   LS    06300Falcon Hill Davis         00000052268
201310STC   LS    07000Duchesne County           00021954029
201310STC   LS    07001Altamont                  00000792450
201310STC   LS    07008Duchesne City             00002185562
201310STC   LS    07017Myton                     00001151005
201310STC   LS    07019Roosevelt                 00015973214
201310STC   LS    07020Tabiona                   00000125819
201310STC   LS    08000Emery County              00001925085
201310STC   LS    08001Castle Dale               00001876346
201310STC   LS    08003Clawson                   00000112271
201310STC   LS    08004Cleveland                 00000416482
201310STC   LS    08007Elmo                      00000310328
201310STC   LS    08008Emery City                00000233524
201310STC   LS    08009Ferron                    00001198920
201310STC   LS    08011Green River               00001381283
201310STC   LS    08012Huntington                00002601048
201310STC   LS    08016Orangeville               00001304773
201310STC   LS    09000Garfield County           00001040987
201310STC   LS    09001Antimony                  00000098965
201310STC   LS    09002Boulder                   00000162027
201310STC   LS    09003Bryce Canyon              00000472953
201310STC   LS    09004Cannonville               00000126586
201310STC   LS    09005Escalante                 00000658024
201310STC   LS    09006Hatch                     00000114531
201310STC   LS    09008Henrieville               00000156711
201310STC   LS    09011Panguitch                 00001411711
201310STC   LS    09015Tropic                    00000423501
201310STC   LS    10000Grand County              00005270493
201310STC   LS    10005Castle Valley             00000261086
201310STC   LS    10011Moab                      00008133227
201310STC   LS    11000Iron County               00005735647
201310STC   LS    11003Cedar City                00035726751
201310STC   LS    11005Enoch                     00003961525
201310STC   LS    11012Kanarraville              00000254701
201310STC   LS    11018Paragonah                 00000370710
201310STC   LS    11019Parowan                   00002280507
201310STC   LS    11028Brian Head                00001151775
201310STC   LS    12000Juab County               00000981315
201310STC   LS    12009Eureka                    00000467260
201310STC   LS    12019Levan                     00000591097
201310STC   LS    12024Mona                      00001175562
201310STC   LS    12026Nephi                     00006661961
201310STC   LS    12030Rocky Ridge               00000542123
201310STC   LS    13000Kane County               00001707349
201310STC   LS    13001Alton                     00000088172
201310STC   LS    13002Glendale                  00000275495
201310STC   LS    13004Kanab                     00004501395
201310STC   LS    13007Orderville                00000515863
201310STC   LS    13010Big Water                 00000336945
201310STC   LS    14000Millard County            00003432732
201310STC   LS    14010Delta                     00005103400
201310STC   LS    14014Fillmore                  00002710180
201310STC   LS    14023Hinckley                  00000493847
201310STC   LS    14024Holden                    00000266725
201310STC   LS    14026Kanosh                    00000354245
201310STC   LS    14028Leamington                00000166076
201310STC   LS    14030Lynndyl                   00000078898
201310STC   LS    14034Meadow                    00000363608
201310STC   LS    14037Oak City                  00000396153
201310STC   LS    14040Scipio                    00000328074
201310STC   LS    15000Morgan County             00004816507
201310STC   LS    15007Morgan City               00003961698
201310STC   LS    16000Piute County              00000169555
201310STC   LS    16003Circleville               00000378350
201310STC   LS    16005Junction                  00000143324
201310STC   LS    16006Kingston                  00000110275
201310STC   LS    16007Marysvale                 00000332232
201310STC   LS    17000Rich County               00000580092
201310STC   LS    17001Garden City               00000618800
201310STC   LS    17002Laketown                  00000210171
201310STC   LS    17005Randolph                  00000361109
201310STC   LS    17010Woodruff                  00000145057
201310STC   LS    18000Salt Lake County          00163456685
201310STC   LS    18003Alta                      00004592496
201310STC   LS    18019Bluffdale                 00006862917
201310STC   LS    18020Cottonwood Heights        00037469748
201310STC   LS    18039Draper                    00062153429
201310STC   LS    18060Herriman                  00017680032
201310STC   LS    18065Holladay                  00023295602
201310STC   LS    18093Midvale                   00038835130
201310STC   LS    18096Murray                    00092017208
201310STC   LS    18118Riverton                  00036978921
201310STC   LS    18122Salt Lake City            00359099795
201310STC   LS    18131Sandy                     00132393990
201310STC   LS    18138South Jordan              00070442841
201310STC   LS    18139South Salt Lake           00059886562
201310STC   LS    18142Taylorsville              00057318550
201310STC   LS    18155West Jordan               00109912590
201310STC   LS    18167West Valley City          00152044586
201310STC   LS    18300UT Data Ctr SL Co         00000232263
201310STC   LS    19000San Juan County           00011323279
201310STC   LS    19002Blanding                  00003624985
201310STC   LS    19009Monticello                00001815324
201310STC   LS    20000Sanpete County            00003100268
201310STC   LS    20004Centerfield               00001023351
201310STC   LS    20008Ephraim                   00006345947
201310STC   LS    20009Fairview                  00001146490
201310STC   LS    20010Fayette                   00000172556
201310STC   LS    20011Fountain Green            00000747923
201310STC   LS    20014Gunnison                  00002904786
201310STC   LS    20020Manti                     00002461668
201310STC   LS    20021Mayfield                  00000347673
201310STC   LS    20023Moroni                    00001203469
201310STC   LS    20024Mt. Pleasant              00002919790
201310STC   LS    20031Spring City               00000766165
201310STC   LS    20032Sterling                  00000211483
201310STC   LS    20033Wales                     00000248754
201310STC   LS    21000Sevier County             00002387643
201310STC   LS    21001Annabella                 00000558811
201310STC   LS    21002Aurora                    00000887261
201310STC   LS    21007Central Valley            00000364239
201310STC   LS    21014Elsinore                  00000636884
201310STC   LS    21018Glenwood                  00000366643
201310STC   LS    21025Joseph                    00000240318
201310STC   LS    21029Koosharem                 00000228612
201310STC   LS    21031Monroe                    00001760509
201310STC   LS    21033Redmond                   00000603268
201310STC   LS    21034Richfield                 00011852472
201310STC   LS    21035Salina                    00002791011
201310STC   LS    21038Sigurd                    00000304123
201310STC   LS    22000Summit County             00042211293
201310STC   LS    22006Coalville                 00001441278
201310STC   LS    22013Francis                   00000841578
201310STC   LS    22017Henefer                   00000577314
201310STC   LS    22022Kamas                     00001963308
201310STC   LS    22029Oakley                    00001105586
201310STC   LS    22030Park City                 00054766000
201310STC   LS    23000Tooele County             00015271783
201310STC   LS    23023Grantsville               00007445043
201310STC   LS    23037Ophir                     00000025791
201310STC   LS    23046Stockton                  00000519111
201310STC   LS    23048Tooele City               00032778160
201310STC   LS    23050Vernon                    00000185264
201310STC   LS    23052Wendover                  00001100381
201310STC   LS    24000Uintah County             00025226264
201310STC   LS    24014Naples                    00014905948
201310STC   LS    24024Vernal                    00027085587
201310STC   LS    24028Ballard                   00002619258
201310STC   LS    25000Utah County               00011199864
201310STC   LS    25001Alpine                    00006896555
201310STC   LS    25002American Fork             00043841626
201310STC   LS    25019Cedar Fort                00000282016
201310STC   LS    25030Eagle Mountain            00015260137
201310STC   LS    25035Fairfield                 00000087603
201310STC   LS    25038Genola                    00000869003
201310STC   LS    25043Goshen                    00000626235
201310STC   LS    25066Lehi                      00052708591
201310STC   LS    25070Lindon                    00020846300
201310STC   LS    25073Mapleton                  00005959992
201310STC   LS    25083Orem                      00126724440
201310STC   LS    25085Payson                    00018929174
201310STC   LS    25090Provo                     00114855234
201310STC   LS    25096Salem                     00005435191
201310STC   LS    25097Santaquin                 00007074790
201310STC   LS    25098Saratoga Springs          00016979471
201310STC   LS    25099Highland                  00012284513
201310STC   LS    25103Spanish Fork              00035235545
201310STC   LS    25106Springville               00031723506
201310STC   LS    25117Vineyard                  00007090267
201310STC   LS    25123Cedar Hills               00008237763
201310STC   LS    25124Elk Ridge                 00001817067
201310STC   LS    25125Woodland Hills            00000975522
201310STC   LS    26000Wasatch County            00005634567
201310STC   LS    26003Charleston                00000517283
201310STC   LS    26005Daniel                    00000678854
201310STC   LS    26008Heber                     00014243697
201310STC   LS    26009Independence              00000324086
201310STC   LS    26011Midway                    00003618293
201310STC   LS    26014Wallsburg                 00000215970
201310STC   LS    26020Hideout                   00000444646
201310STC   LS    27000Washington County         00007617052
201310STC   LS    27002Apple Valley              00000500123
201310STC   LS    27005Enterprise                00001327831
201310STC   LS    27008Hurricane                 00015480737
201310STC   LS    27010Ivins                     00005592368
201310STC   LS    27011La Verkin                 00003188341
201310STC   LS    27012Leeds                     00000645483
201310STC   LS    27015New Harmony Town          00000195657
201310STC   LS    27019Rockville                 00000173668
201310STC   LS    27020St. George                00108613711
201310STC   LS    27021Santa Clara               00004474704
201310STC   LS    27023Springdale                00001263253
201310STC   LS    27024Toquerville               00000971203
201310STC   LS    27026Virgin                    00000404307
201310STC   LS    27027Washington City           00023465597
201310STC   LS    27035Hildale                   00002223624
201310STC   LS    28000Wayne County              00000883691
201310STC   LS    28001Bicknell                  00000361231
201310STC   LS    28005Hanksville                00000195588
201310STC   LS    28007Loa                       00000770349
201310STC   LS    28008Lyman                     00000183641
201310STC   LS    28010Torrey                    00000159992
201310STC   LS    29000Weber County              00014386026
201310STC   LS    29012Farr West                 00006245161
201310STC   LS    29016Harrisville               00008628520
201310STC   LS    29018Hooper                    00005211537
201310STC   LS    29019Huntsville                00000566759
201310STC   LS    29022Marriot-Slaterville       00002697981
201310STC   LS    29026North Ogden               00014665775
201310STC   LS    29027Ogden                     00098833573
201310STC   LS    29030Plain City                00003863769
201310STC   LS    29031Pleasant View             00006528004
201310STC   LS    29036Riverdale                 00032227615
201310STC   LS    29037Roy                       00031370542
201310STC   LS    29040South Ogden               00020717909
201310STC   LS    29043Uintah                    00001204761
201310STC   LS    29049Washington Terrace        00006602122
201310STC   LS    29051West Haven                00010605153
201310STC   CT    18000Salt Lake County          00262451592
201310STC   CT    29000Weber County              00039456336
201310STC   CT    03000Cache County              00020302816
201310STC   MA    02017Brigham City              00002802786
201310STC   MA    29000Weber County              00052687490
201310STC   MA    18000Salt Lake County          00280371807
201310STC   MA    02086Perry                     00001005679
201310STC   MA    02120Willard                   00000163684
201310STC   MA    06000Davis County              00062381580
201310STC   MM    22030Park City                 00028508650
201310STC   MM    23048Tooele City               00006215185
201310STC   MM    25090Provo                     00000093286
201310STC   MM    03049North Logan               00003631562
201310STC   MM    03900Cache Valley Transit      00000061617
201310STC   MM    03044Millville                 00000092800
201310STC   MM    25098Saratoga Springs          00000000999
201310STC   MM    25001Alpine                    00000005911
201310STC   MM    25096Salem                     00000053782
201310STC   MM    03098Nibley                    00000329352
201310STC   MM    03062Smithfield                00001033465
201310STC   MM    03033Hyrum                     00000606188
201310STC   MM    03059Richmond                  00000261177
201310STC   MM    03038Logan                     00015132867
201310STC   MM    03056Providence                00000703223
201310STC   MM    25002American Fork             00000007576
201310STC   MM    02086Perry                     00001204223
201310STC   MM    02017Brigham City              00003356166
201310STC   MM    03032Hyde Park                 00000583238
201310STC   MM    03036Lewiston                  00000206462
201310STC   MM    25070Lindon                    00000025050
201310STC   MM    02120Willard                   00000196001
201310STC   MM    25030Eagle Mountain            00000014099
201310STC   MM    25106Springville               00000093060
201310STC   MM    03060River Heights             00000095234
201310STC   MM    25066Lehi                      00000054592
201310STC   MM    25103Spanish Fork              00000008879
201310STC   MM    25085Payson                    00000035896
201310STC   MM    25073Mapleton                  00000000801
201310STC   MM    25099Highland                  00000010505
201310STC   MM    25097Santaquin                 00000004693
201310STC   MM    22000Summit County             00013404144
201310STC   MM    23000Tooele County             00002067213
201310STC   MM    25000Utah County               00000000126
201310STC   MT    06000Davis County              00062320201
201310STC   MT    18000Salt Lake County          00420076176
201310STC   MT    25000Utah County               00106769058
201310STC   MT    29000Weber County              00052638131
201310STC   RA    08011Green River               00000700864
201310STC   RA    10011Moab                      00003858260
201310STC   RA    11028Brian Head                00001094808
201310STC   RA    17001Garden City               00000238721
201310STC   RA    18003Alta                      00004350001
201310STC   RA    27023Springdale                00000892886
201310STC   RA    22030Park City                 00000000709
201310STC   RR    08011Green River               00001402300
201310STC   RR    09003Bryce Canyon              00000719775
201310STC   RR    09011Panguitch                 00000817881
201310STC   RR    09015Tropic                    00000137258
201310STC   RR    10011Moab                      00008491144
201310STC   RR    11028Brian Head                00002190502
201310STC   RR    13004Kanab                     00002952001
201310STC   RR    13007Orderville                00000257507
201310STC   RR    17001Garden City               00000544507
201310STC   RR    18003Alta                      00008703500
201310STC   RR    22030Park City                 00104682639
201310STC   RR    26009Independence              00000483426
201310STC   RR    26011Midway                    00002230659
201310STC   RR    27023Springdale                00001965139
201310STC   RR    09002Boulder                   00000046272
201310STC   MH    01002Beaver City               00002207952
201310STC   RH    05000Daggett County            00002178595
201310STC   RH    09000Garfield County           00002671170
201310STC   RH    13000Kane County               00005180398
201310STC   RH    24000Uintah County             00000226819
201310STC   SM    06000Davis County              00012461032
201310STC   SM    29000Weber County              00010520464
201310STC   TO    02100Snowville                 00000145915
201310STC   CZ    22000Summit County             00014876729
201310STC   CZ    18000Salt Lake County          00140073888
201310STC   CZ    24000Uintah County             00009330140
201310STC   CZ    29000Weber County              00021055826
201310STC   CZ    03000Cache County              00008124922
201310STC   MZ    07019Roosevelt                 00002247344
201310STC   MZ    06004Bountiful                 00003090537
201310STC   MZ    23048Tooele City               00002074820
201310STC   MZ    21034Richfield                 00001185087
201310STC   MZ    21035Salina                    00000242767
201310STC   MZ    11028Brian Head                00000218849
201310STC   MZ    11003Cedar City                00002962389
201310STC   MZ    25083Orem                      00012500319
201310STC   MZ    06006Centerville               00002157540
201310STC   MZ    04035Price                     00001788345
201310STC   MZ    25123Cedar Hills               00000277423
201310STC   MZ    21002Aurora                    00000050982
201310STC   MZ    06057Woods Cross               00001593803
201310STC   MZ    21033Redmond                   00000029998
201310STC   MZ    19009Monticello                00000089482
201310STC   MZ    06035North Salt Lake           00002144108
201310STC   MZ    06061West Bountiful            00001431961
201310STC   MZ    07008Duchesne City             00000155143
201310STC   MZ    19002Blanding                  00000265544
201310STE   ET    29027Ogden                     00003404443
201310STE   ET    18122Salt Lake City            00009610468
201310STE   ET    25002American Fork             00000398086
201310STE   ET    25096Salem                     00000367185
201310STE   ET    06008Clearfield                00001041692
201310STE   ET    19009Monticello                00000904047
201310STE   ET    25125Woodland Hills            00000366329
201310STE   ET    03062Smithfield                00000358940
201310STE   ET    25103Spanish Fork              00001233673
201310STE   ET    25090Provo                     00002028593
201310STE   ET    25106Springville               00000054081
201310STE   ET    18167West Valley City          00002836292
201310STE   ET    25097Santaquin                 00000229032
201310STE   ET    02017Brigham City              00000113871
201310STE   ET    13004Kanab                     00000962407
201310STE   ET    20008Ephraim                   00000214958
201310STE   ET    03033Hyrum                     00000464026
201310STE   ET    06035North Salt Lake           00000158791
201310STE   ET    18155West Jordan               00001616377
201310STE   ET    06061West Bountiful            00000034667
201310STE   ET    03038Logan                     00002856747
201310STE   ET    07017Myton                     00000144309
201310STE   ET    06006Centerville               00000105051
201310STE   ET    07008Duchesne City             00000626192
201310STE   ET    26008Heber                     00000035309
201310STE   ET    18093Midvale                   00000099115
201310STE   ET    25073Mapleton                  00000027053
201310STE   ET    25066Lehi                      00001300156
201310STE   ET    25085Payson                    00000261857
201310STE   ET    18118Riverton                  00000140817
201310STE   ET    18131Sandy                     00000189900
201310STE   ET    11003Cedar City                00000501243
201310STE   ET    18139South Salt Lake           00000574864
201310STE   ET    29040South Ogden               00000023788
201310STE   ET    18096Murray                    00000739904
201310STE   ET    07019Roosevelt                 00001995284
201310STE   ET    27035Hildale                   00000603709
201310STE   ET    04035Price                     00000118985
201310STE   ET    27020St. George                00000133102
201310STE   ET    22030Park City                 00000146034
201310STE   ET    09005Escalante                 00000217504
201310STE   ET    25124Elk Ridge                 00000510783
201310STE   ET    25083Orem                      00000023417
201310STE   ET    02113Tremonton                 00000529136
201310STE   ET    06030Layton                    00000162704
201310STL   FF    06000Davis County              00000485231
201310STL   FF    10000Grand County              00000069524
201310STL   FF    18000Salt Lake County          00045446606
201310STL   FF    21000Sevier County             00000006119
201310STL   FF    24000Uintah County             00000188305
201310STL   FF    25000Utah County               00001057917
201310STL   FF    27000Washington County         00000805876
201310STL   FF    29000Weber County              00000415307
201310STL   FP    06000Davis County              00003069829
201310STL   FP    15000Morgan County             00000081283
201310STL   FP    18000Salt Lake County          00051220687
201310STL   FP    21000Sevier County             00000181716
201310STL   FP    25000Utah County               00005439729
201310STL   FP    27000Washington County         00001941117
201310STL   FP    29000Weber County              00002355046
201310STR   TR    01000Beaver County             00000640839
201310STR   TR    02000Box Elder County          00000979674
201310STR   TR    03000Cache County              00001746343
201310STR   TR    04000Carbon County             00001335087
201310STR   TR    05000Daggett County            00000111883
201310STR   TR    06000Davis County              00005783567
201310STR   TR    07000Duchesne County           00000233710
201310STR   TR    08000Emery County              00000839209
201310STR   TR    09000Garfield County           00001456805
201310STR   TR    10000Grand County              00004849999
201310STR   TR    11000Iron County               00006294001
201310STR   TR    12000Juab County               00000153202
201310STR   TR    13000Kane County               00002343125
201310STR   TR    14000Millard County            00000359628
201310STR   TR    15000Morgan County             00000011546
201310STR   TR    16000Piute County              00000040330
201310STR   TR    17000Rich County               00000496796
201310STR   TR    18000Salt Lake County          00108471008
201310STR   TR    19000San Juan County           00001294666
201310STR   TR    20000Sanpete County            00000105971
201310STR   TR    21000Sevier County             00002039860
201310STR   TR    22000Summit County             00119171030
201310STR   TR    23000Tooele County             00001122146
201310STR   TR    24000Uintah County             00004026309
201310STR   TR    25000Utah County               00016102332
201310STR   TR    26000Wasatch County            00003628798
201310STR   TR    27000Washington County         00021235934
201310STR   TR    28000Wayne County              00000353618
201310STR   TR    29000Weber County              00007442910
201310STR   TA    07019Roosevelt                 00000025863
201310STR   TA    10011Moab                      00000374930
201310STR   TA    18131Sandy                     00001072279
201310STR   TA    18167West Valley City          00000536788
201310STR   TA    25090Provo                     00000839251
201310STR   TA    25106Springville               00000080588
201310STR   TM    01008Milford                   00000037685
201310STR   TM    02017Brigham City              00000067331
201310STR   TM    02113Tremonton                 00000160862
201310STR   TM    03038Logan                     00000477810
201310STR   TM    04035Price                     00000297835
201310STR   TM    06008Clearfield                00000026175
201310STR   TM    06017Farmington                00000000266
201310STR   TM    06030Layton                    00000923120
201310STR   TM    06035North Salt Lake           00000143923
201310STR   TM    06057Woods Cross               00000247096
201310STR   TM    07019Roosevelt                 00000051726
201310STR   TM    08011Green River               00000186879
201310STR   TM    09005Escalante                 00000018854
201310STR   TM    10011Moab                      00000749854
201310STR   TM    13002Glendale                  00000008237
201310STR   TM    13004Kanab                     00000145585
201310STR   TM    14010Delta                     00000053253
201310STR   TM    14014Fillmore                  00000066625
201310STR   TM    18020Cottonwood Heights        00000286721
201310STR   TM    18039Draper                    00000472077
201310STR   TM    18065Holladay                  00000358368
201310STR   TM    18093Midvale                   00000554285
201310STR   TM    18096Murray                    00000793932
201310STR   TM    18122Salt Lake City            00017361975
201310STR   TM    18131Sandy                     00002144558
201310STR   TM    18139South Salt Lake           00000157544
201310STR   TM    18155West Jordan               00000212515
201310STR   TM    18167West Valley City          00001073574
201310STR   TM    19002Blanding                  00000045330
201310STR   TM    19009Monticello                00000088133
201310STR   TM    21034Richfield                 00000411226
201310STR   TM    21035Salina                    00000049988
201310STR   TM    23048Tooele City               00000212439
201310STR   TM    24014Naples                    00000096139
201310STR   TM    24024Vernal                    00000785130
201310STR   TM    25066Lehi                      00000719929
201310STR   TM    25083Orem                      00000721752
201310STR   TM    25085Payson                    00000043300
201310STR   TM    25090Provo                     00001678499
201310STR   TM    25106Springville               00000161176
201310STR   TM    26008Heber                     00000171334
201310STR   TM    26011Midway                    00000330277
201310STR   TM    27008Hurricane                 00000366661
201310STR   TM    27010Ivins                     00000419594
201310STR   TM    27020St. George                00003226211
201310STR   TM    27021Santa Clara               00000002924
201310STR   TM    27023Springdale                00000674531
201310STR   TM    28005Hanksville                00000009009
201310STR   TM    29022Marriot-Slaterville       00000139739
201310STR   TM    29027Ogden                     00000907715
201310STR   TM    29036Riverdale                 00000055509
201310STR   TM    29051West Haven                00000276478
201310STR   TT    18000Salt Lake County          00015013292
