201505SEM   ES    06000Davis County              00008539782
201505SEM   ES    13000Kane County               00000494866
201505SEM   ES    18118Riverton                  00001991096
201505SEM   ES    24000Uintah County             00003928693
201505SEM   ES    23000Tooele County             00003310954
201505SEM   ES    18019Bluffdale                 00000479692
201505SEM   ES    06008Clearfield                00001695989
201505SEM   ES    06004Bountiful                 00004907027
201505SEM   ES    25090Provo                     00005139455
201505SEM   ES    27020St. George                00008081090
201505SEM   ES    18122Salt Lake City            00024417340
201505SEM   ES    17002Laketown                  00000019515
201505SEM   ES    17005Randolph                  00000032765
201505SEM   ES    02000Box Elder County          00003024547
201505SEM   ES    11000Iron County               00002468436
201505SEM   ES    29000Weber County              00014959406
201505SEM   ES    12000Juab County               00000541565
201505SEM   ES    19000San Juan County           00000621604
201505SEM   ES    06030Layton                    00004252601
201505SEM   ES    18060Herriman                  00000932710
201505SEM   ES    18000Salt Lake County          00017631401
201505SEM   ES    03038Logan                     00006131697
201505SEM   ES    25088Pleasant Grove            00001788986
201505SEM   ES    25070Lindon                    00000741297
201505SEM   ES    18020Cottonwood Heights        00002423325
201505SEM   ES    01000Beaver County             00000377180
201505SEM   ES    17001Garden City               00000058100
201505SEM   ES    25000Utah County               00013825102
201505SEM   ES    25106Springville               00002086899
201505SEM   ES    10000Grand County              00000610487
201505SEM   ES    22000Summit County             00003496447
201505SEM   ES    20000Sanpete County            00001318384
201505SEM   ES    21000Sevier County             00001425473
201505SEM   ES    25083Orem                      00005313606
201505SEM   ES    18142Taylorsville              00002825005
201505SEM   ES    14000Millard County            00000775187
201505SEM   ES    17000Rich County               00000019407
201505SEM   ES    09000Garfield County           00000345366
201505SEM   ES    26000Wasatch County            00001517133
201505SEM   ES    04000Carbon County             00000814665
201505SEM   ES    17010Woodruff                  00000019508
201505SEM   ES    08000Emery County              00000394132
201505SEM   ES    27035Hildale                   00000046819
201505SEM   ES    18999Salt Lake County/VECC     00026736867
201505SMT   TL    03038Logan                     00004847381
201505SMT   TL    07008Duchesne City             00000352653
201505SMT   TL    07019Roosevelt                 00001662544
201505SMT   TL    17005Randolph                  00000052573
201505SMT   TL    17010Woodruff                  00000028086
201505SMT   TL    24024Vernal                    00002453047
201505SMT   TL    25083Orem                      00010073593
201505SMT   TL    01002Beaver City               00000399710
201505SMT   TL    01008Milford                   00000233434
201505SMT   TL    02004Bear River                00000046424
201505SMT   TL    02017Brigham City              00002118829
201505SMT   TL    02044Garland                   00000247024
201505SMT   TL    02113Tremonton                 00000920340
201505SMT   TL    02120Willard                   00000163741
201505SMT   TL    03033Hyrum                     00000170075
201505SMT   TL    03056Providence                00000572093
201505SMT   TL    03059Richmond                  00000235205
201505SMT   TL    03062Smithfield                00000917363
201505SMT   TL    03076Wellsville                00000295581
201505SMT   TL    04016Helper                    00000158118
201505SMT   TL    04035Price                     00000707219
201505SMT   TL    04053Wellington                00000058620
201505SMT   TL    04058East Carbon               00000041422
201505SMT   TL    06004Bountiful                 00004969086
201505SMT   TL    06006Centerville               00001800321
201505SMT   TL    06008Clearfield                00003122911
201505SMT   TL    06017Farmington                00002408463
201505SMT   TL    06026Kaysville                 00003724199
201505SMT   TL    06030Layton                    00007725297
201505SMT   TL    06035North Salt Lake           00002374985
201505SMT   TL    06045South Weber               00000641533
201505SMT   TL    06048Sunset                    00000443249
201505SMT   TL    06049Syracuse                  00002294658
201505SMT   TL    06056West Point                00000902476
201505SMT   TL    06057Woods Cross               00000656067
201505SMT   TL    06059Clinton                   00001908645
201505SMT   TL    06061West Bountiful            00000624471
201505SMT   TL    08001Castle Dale               00000028301
201505SMT   TL    09002Boulder                   00000018736
201505SMT   TL    09005Escalante                 00000080360
201505SMT   TL    09006Hatch                     00000009123
201505SMT   TL    09011Panguitch                 00000138814
201505SMT   TL    09015Tropic                    00000018924
201505SMT   TL    10011Moab                      00000725277
201505SMT   TL    11003Cedar City                00003122470
201505SMT   TL    11019Parowan                   00000122731
201505SMT   TL    11028Brian Head                00000033488
201505SMT   TL    12009Eureka                    00000020376
201505SMT   TL    12026Nephi                     00000675788
201505SMT   TL    13004Kanab                     00000556753
201505SMT   TL    14010Delta                     00000436208
201505SMT   TL    14014Fillmore                  00000361267
201505SMT   TL    14040Scipio                    00000007868
201505SMT   TL    15007Morgan City               00000361388
201505SMT   TL    18003Alta                      00000046792
201505SMT   TL    18019Bluffdale                 00000957784
201505SMT   TL    18039Draper                    00004918986
201505SMT   TL    18060Herriman                  00001608523
201505SMT   TL    18065Holladay                  00002736864
201505SMT   TL    18093Midvale                   00003824222
201505SMT   TL    18096Murray                    00007144347
201505SMT   TL    18118Riverton                  00003890747
201505SMT   TL    18122Salt Lake City            00043768891
201505SMT   TL    18131Sandy                     00011055167
201505SMT   TL    18138South Jordan              00006062858
201505SMT   TL    18142Taylorsville              00005274038
201505SMT   TL    18155West Jordan               00009771018
201505SMT   TL    18167West Valley City          00013105428
201505SMT   TL    19009Monticello                00000263986
201505SMT   TL    20004Centerfield               00000039799
201505SMT   TL    20008Ephraim                   00000381699
201505SMT   TL    20014Gunnison                  00000090774
201505SMT   TL    20023Moroni                    00000064818
201505SMT   TL    20024Mt. Pleasant              00000296758
201505SMT   TL    21014Elsinore                  00000040866
201505SMT   TL    21031Monroe                    00000210883
201505SMT   TL    21033Redmond                   00000055418
201505SMT   TL    21034Richfield                 00000788650
201505SMT   TL    22022Kamas                     00000309155
201505SMT   TL    22029Oakley                    00000096302
201505SMT   TL    22030Park City                 00002174747
201505SMT   TL    23023Grantsville               00000915544
201505SMT   TL    23046Stockton                  00000082688
201505SMT   TL    23048Tooele City               00003326190
201505SMT   TL    23052Wendover                  00000111974
201505SMT   TL    24028Ballard                   00000104841
201505SMT   TL    25001Alpine                    00000616028
201505SMT   TL    25002American Fork             00003479883
201505SMT   TL    25066Lehi                      00005101700
201505SMT   TL    25070Lindon                    00001899404
201505SMT   TL    25073Mapleton                  00000766926
201505SMT   TL    25085Payson                    00001772735
201505SMT   TL    25088Pleasant Grove            00003142803
201505SMT   TL    25090Provo                     00014020749
201505SMT   TL    25096Salem                     00000647985
201505SMT   TL    25097Santaquin                 00000692530
201505SMT   TL    25099Highland                  00001447275
201505SMT   TL    25103Spanish Fork              00003203707
201505SMT   TL    25106Springville               00002941237
201505SMT   TL    25117Vineyard                  00000269810
201505SMT   TL    26008Heber                     00001296717
201505SMT   TL    26011Midway                    00000429788
201505SMT   TL    27002Apple Valley              00000061253
201505SMT   TL    27005Enterprise                00000081752
201505SMT   TL    27008Hurricane                 00001628391
201505SMT   TL    27010Ivins                     00000640730
201505SMT   TL    27011La Verkin                 00000358074
201505SMT   TL    27012Leeds                     00000078850
201505SMT   TL    27020St. George                00009039592
201505SMT   TL    27021Santa Clara               00000549287
201505SMT   TL    27023Springdale                00000060911
201505SMT   TL    27027Washington City           00001016781
201505SMT   TL    27035Hildale                   00000098295
201505SMT   TL    29016Harrisville               00000551757
201505SMT   TL    29018Hooper                    00000707652
201505SMT   TL    29019Huntsville                00000047962
201505SMT   TL    29026North Ogden               00001911901
201505SMT   TL    29027Ogden                     00010305128
201505SMT   TL    29037Roy                       00003762594
201505SMT   TL    29040South Ogden               00001857506
201505SMT   TL    18139South Salt Lake           00003712581
201505SMT   TL    02041Fielding                  00000050999
201505SMT   TL    02069Mantua                    00000077109
201505SMT   TL    02092Portage                   00000027186
201505SMT   TL    03014Clarkston                 00000059257
201505SMT   TL    03044Millville                 00000136433
201505SMT   TL    03060River Heights             00000186180
201505SMT   TL    03098Nibley                    00000386385
201505SMT   TL    07017Myton                     00000199513
201505SMT   TL    08009Ferron                    00000006865
201505SMT   TL    08016Orangeville               00000152589
201505SMT   TL    11005Enoch                     00000408269
201505SMT   TL    11012Kanarraville              00000040961
201505SMT   TL    14023Hinckley                  00000030499
201505SMT   TL    20021Mayfield                  00000018605
201505SMT   TL    24014Naples                    00000351091
201505SMT   TL    25030Eagle Mountain            00001751168
201505SMT   TL    25098Saratoga Springs          00001451298
201505SMT   TL    25123Cedar Hills               00000711110
201505SMT   TL    25124Elk Ridge                 00000226363
201505SMT   TL    25125Woodland Hills            00000134377
201505SMT   TL    26003Charleston                00000057570
201505SMT   TL    27024Toquerville               00000045618
201505SMT   TL    29030Plain City                00000485579
201505SMT   TL    29031Pleasant View             00000756712
201505SMT   TL    29043Uintah                    00000132037
201505SMT   TL    29049Washington Terrace        00000948422
201505SMT   TL    29051West Haven                00001132660
201505SMT   TL    06300Falcon Hill Davis         00000037838
201505SMT   TL    29301Falcon Hill Roy           00000001269
201505SMT   TL    01009Minersville               00000040221
201505SMT   TL    12019Levan                     00000031347
201505SMT   TL    21007Central Valley            00000016800
201505SMT   TL    26005Daniel                    00000167493
201505SMT   TL    26009Independence              00000014016
201505SMT   TL    26020Hideout                   00000025240
201505SPF   FG    01000Beaver County             00001374207
201505SPF   FG    02000Box Elder County          00005980466
201505SPF   FG    03000Cache County              00013081666
201505SPF   FG    04000Carbon County             00003040636
201505SPF   FG    05000Daggett County            00000313271
201505SPF   FG    06000Davis County              00035705461
201505SPF   FG    07000Duchesne County           00002669682
201505SPF   FG    08000Emery County              00001093582
201505SPF   FG    09000Garfield County           00004978800
201505SPF   FG    10000Grand County              00006622550
201505SPF   FG    11000Iron County               00006185707
201505SPF   FG    12000Juab County               00001094615
201505SPF   FG    13000Kane County               00002848296
201505SPF   FG    15000Morgan County             00000535563
201505SPF   FG    17000Rich County               00000882244
201505SPF   FG    18000Salt Lake County          00198765700
201505SPF   FG    19000San Juan County           00001227010
201505SPF   FG    20000Sanpete County            00002117011
201505SPF   FG    21000Sevier County             00002977888
201505SPF   FG    22000Summit County             00018868567
201505SPF   FG    23000Tooele County             00005175118
201505SPF   FG    24000Uintah County             00004720503
201505SPF   FG    25000Utah County               00062895191
201505SPF   FG    26000Wasatch County            00005233919
201505SPF   FG    27000Washington County         00027964121
201505SPF   FG    28000Wayne County              00001116421
201505SPF   FG    29000Weber County              00029183862
201505STC   TN    18139South Salt Lake           00027434523
201505STC   TN    29036Riverdale                 00010674014
201505STC   CO    01000Beaver County             00002804711
201505STC   CO    02000Box Elder County          00017459196
201505STC   CO    03000Cache County              00041564983
201505STC   CO    04000Carbon County             00009587646
201505STC   CO    05000Daggett County            00000516885
201505STC   CO    06000Davis County              00117370789
201505STC   CO    07000Duchesne County           00014249166
201505STC   CO    08000Emery County              00003979850
201505STC   CO    09000Garfield County           00003368978
201505STC   CO    10000Grand County              00007509574
201505STC   CO    11000Iron County               00017357553
201505STC   CO    12000Juab County               00003417945
201505STC   CO    13000Kane County               00004419741
201505STC   CO    14000Millard County            00004810966
201505STC   CO    15000Morgan County             00003382820
201505STC   CO    16000Piute County              00000490797
201505STC   CO    17000Rich County               00001231479
201505STC   CO    18000Salt Lake County          00482057408
201505STC   CO    19000San Juan County           00005769650
201505STC   CO    20000Sanpete County            00008853886
201505STC   CO    21000Sevier County             00008547164
201505STC   CO    22000Summit County             00021863554
201505STC   CO    23000Tooele County             00020683772
201505STC   CO    24000Uintah County             00023847374
201505STC   CO    25000Utah County               00200115309
201505STC   CO    26000Wasatch County            00010684434
201505STC   CO    27000Washington County         00061951257
201505STC   CO    28000Wayne County              00001200232
201505STC   CO    29000Weber County              00091156104
201505STC   MF    25000Utah County               00167800565
201505STC   HT    27020St. George                00045791637
201505STC   HT    27011La Verkin                 00000507997
201505STC   HT    20024Mt. Pleasant              00000886789
201505STC   HT    21034Richfield                 00006017270
201505STC   HT    10011Moab                      00008485360
201505STC   HT    19002Blanding                  00001514735
201505STC   HT    24014Naples                    00009924679
201505STC   HT    26008Heber                     00006705579
201505STC   HT    04035Price                     00007346662
201505STC   HT    07019Roosevelt                 00007749666
201505STC   HT    04053Wellington                00000739704
201505STC   HT    21035Salina                    00001467980
201505STC   HT    20008Ephraim                   00002101106
201505STC   HT    27027Washington City           00007858377
201505STC   HT    19009Monticello                00000740013
201505STC   HT    20009Fairview                  00000348902
201505STC   HT    20014Gunnison                  00000713889
201505STC   HT    12026Nephi                     00001765183
201505STC   HT    11028Brian Head                00000307913
201505STC   HT    26011Midway                    00001312839
201505STC   HT    27021Santa Clara               00000465831
201505STC   HT    27010Ivins                     00001123413
201505STC   HT    27008Hurricane                 00005089220
201505STC   HT    08011Green River               00001033558
201505STC   HT    24024Vernal                    00017752774
201505STC   HC    25000Utah County               00152131202
201505STC   LS    01000Beaver County             00001696711
201505STC   LS    01002Beaver City               00005759181
201505STC   LS    01008Milford                   00002852438
201505STC   LS    01009Minersville               00000910282
201505STC   LS    02000Box Elder County          00011721723
201505STC   LS    02004Bear River                00000784541
201505STC   LS    02017Brigham City              00025330344
201505STC   LS    02025Corinne                   00001370287
201505STC   LS    02032Deweyville                00000383259
201505STC   LS    02035Elwood                    00001068085
201505STC   LS    02041Fielding                  00000446820
201505STC   LS    02044Garland                   00002521371
201505STC   LS    02054Honeyville                00001593408
201505STC   LS    02057Howell                    00000213596
201505STC   LS    02069Mantua                    00000622974
201505STC   LS    02086Perry                     00007594011
201505STC   LS    02090Plymouth                  00000704020
201505STC   LS    02092Portage                   00000214504
201505STC   LS    02100Snowville                 00000396018
201505STC   LS    02113Tremonton                 00013029220
201505STC   LS    02120Willard                   00001836881
201505STC   LS    03000Cache County              00007640535
201505STC   LS    03001Amalga                    00000583113
201505STC   LS    03014Clarkston                 00000584285
201505STC   LS    03017Cornish                   00000270460
201505STC   LS    03032Hyde Park                 00005617413
201505STC   LS    03033Hyrum                     00008475831
201505STC   LS    03036Lewiston                  00002142222
201505STC   LS    03038Logan                     00085583508
201505STC   LS    03041Mendon                    00001203831
201505STC   LS    03044Millville                 00001816761
201505STC   LS    03047Newton                    00000769117
201505STC   LS    03049North Logan               00016919567
201505STC   LS    03053Paradise                  00000907880
201505STC   LS    03056Providence                00008113206
201505STC   LS    03059Richmond                  00002730506
201505STC   LS    03060River Heights             00001653255
201505STC   LS    03062Smithfield                00011776702
201505STC   LS    03076Wellsville                00003378864
201505STC   LS    03081Trenton                   00000422982
201505STC   LS    03098Nibley                    00005655935
201505STC   LS    04000Carbon County             00010304629
201505STC   LS    04016Helper                    00002770402
201505STC   LS    04035Price                     00020873908
201505STC   LS    04040Scofield                  00000066842
201505STC   LS    04053Wellington                00002593303
201505STC   LS    04058East Carbon               00001738164
201505STC   LS    05000Daggett County            00001449945
201505STC   LS    05006Manila                    00000617428
201505STC   LS    06000Davis County              00007334952
201505STC   LS    06004Bountiful                 00060707425
201505STC   LS    06006Centerville               00031128895
201505STC   LS    06008Clearfield                00036132672
201505STC   LS    06010Fruit Heights             00005380915
201505STC   LS    06017Farmington                00029236240
201505STC   LS    06026Kaysville                 00033830325
201505STC   LS    06030Layton                    00115330535
201505STC   LS    06035North Salt Lake           00032324187
201505STC   LS    06045South Weber               00006806498
201505STC   LS    06048Sunset                    00006408521
201505STC   LS    06049Syracuse                  00030668869
201505STC   LS    06056West Point                00009154922
201505STC   LS    06057Woods Cross               00021656921
201505STC   LS    06059Clinton                   00026602961
201505STC   LS    06061West Bountiful            00016636188
201505STC   LS    06300Falcon Hill Davis         00000120007
201505STC   LS    07000Duchesne County           00030982923
201505STC   LS    07001Altamont                  00001217971
201505STC   LS    07008Duchesne City             00003327220
201505STC   LS    07017Myton                     00001497647
201505STC   LS    07019Roosevelt                 00019718663
201505STC   LS    07020Tabiona                   00000247035
201505STC   LS    08000Emery County              00003006672
201505STC   LS    08001Castle Dale               00002347363
201505STC   LS    08003Clawson                   00000174065
201505STC   LS    08004Cleveland                 00000485624
201505STC   LS    08007Elmo                      00000375547
201505STC   LS    08008Emery City                00000308041
201505STC   LS    08009Ferron                    00001648439
201505STC   LS    08011Green River               00002599668
201505STC   LS    08012Huntington                00003379778
201505STC   LS    08016Orangeville               00001599158
201505STC   LS    09000Garfield County           00003616645
201505STC   LS    09001Antimony                  00000231004
201505STC   LS    09002Boulder                   00000504695
201505STC   LS    09003Bryce Canyon              00002646063
201505STC   LS    09004Cannonville               00000360709
201505STC   LS    09005Escalante                 00001343248
201505STC   LS    09006Hatch                     00000311546
201505STC   LS    09008Henrieville               00000190271
201505STC   LS    09011Panguitch                 00003087072
201505STC   LS    09015Tropic                    00001183495
201505STC   LS    10000Grand County              00009777452
201505STC   LS    10005Castle Valley             00000407785
201505STC   LS    10011Moab                      00019850286
201505STC   LS    11000Iron County               00008151786
201505STC   LS    11003Cedar City                00050777667
201505STC   LS    11005Enoch                     00005327701
201505STC   LS    11012Kanarraville              00000372086
201505STC   LS    11018Paragonah                 00000524984
201505STC   LS    11019Parowan                   00003640042
201505STC   LS    11028Brian Head                00000630093
201505STC   LS    12000Juab County               00001560091
201505STC   LS    12009Eureka                    00000677813
201505STC   LS    12019Levan                     00000877269
201505STC   LS    12024Mona                      00001968977
201505STC   LS    12026Nephi                     00007812466
201505STC   LS    12030Rocky Ridge               00000754810
201505STC   LS    13000Kane County               00006426162
201505STC   LS    13001Alton                     00000242286
201505STC   LS    13002Glendale                  00000403784
201505STC   LS    13004Kanab                     00008505277
201505STC   LS    13007Orderville                00001332645
201505STC   LS    13010Big Water                 00000767232
201505STC   LS    14000Millard County            00005348435
201505STC   LS    14010Delta                     00006480924
201505STC   LS    14014Fillmore                  00004262886
201505STC   LS    14023Hinckley                  00000606734
201505STC   LS    14024Holden                    00000364224
201505STC   LS    14026Kanosh                    00000475761
201505STC   LS    14028Leamington                00000234439
201505STC   LS    14030Lynndyl                   00000108582
201505STC   LS    14034Meadow                    00000349056
201505STC   LS    14037Oak City                  00000577966
201505STC   LS    14040Scipio                    00000476813
201505STC   LS    15000Morgan County             00007579878
201505STC   LS    15007Morgan City               00005950290
201505STC   LS    16000Piute County              00000279995
201505STC   LS    16003Circleville               00000509884
201505STC   LS    16005Junction                  00000284614
201505STC   LS    16006Kingston                  00000145280
201505STC   LS    16007Marysvale                 00000743239
201505STC   LS    17001Garden City               00002668708
201505STC   LS    17002Laketown                  00000553637
201505STC   LS    17005Randolph                  00000600563
201505STC   LS    17010Woodruff                  00000266199
201505STC   LS    18000Salt Lake County          00215631329
201505STC   LS    18003Alta                      00000626172
201505STC   LS    18019Bluffdale                 00010602086
201505STC   LS    18020Cottonwood Heights        00047716947
201505STC   LS    18039Draper                    00090184064
201505STC   LS    18060Herriman                  00026780181
201505STC   LS    18065Holladay                  00032819689
201505STC   LS    18093Midvale                   00059497118
201505STC   LS    18096Murray                    00124543062
201505STC   LS    18118Riverton                  00050440229
201505STC   LS    18122Salt Lake City            00485090342
201505STC   LS    18131Sandy                     00168495834
201505STC   LS    18138South Jordan              00097306557
201505STC   LS    18139South Salt Lake           00090085142
201505STC   LS    18142Taylorsville              00071265525
201505STC   LS    18155West Jordan               00152557661
201505STC   LS    18167West Valley City          00206352826
201505STC   LS    18300UT Data Ctr SL Co         00000012751
201505STC   LS    19000San Juan County           00014217169
201505STC   LS    19002Blanding                  00005794543
201505STC   LS    19009Monticello                00003064962
201505STC   LS    20000Sanpete County            00004614309
201505STC   LS    20004Centerfield               00001799596
201505STC   LS    20008Ephraim                   00009809195
201505STC   LS    20009Fairview                  00001834160
201505STC   LS    20010Fayette                   00000230512
201505STC   LS    20011Fountain Green            00001050411
201505STC   LS    20014Gunnison                  00004039349
201505STC   LS    20020Manti                     00003682099
201505STC   LS    20021Mayfield                  00000446333
201505STC   LS    20023Moroni                    00001804522
201505STC   LS    20024Mt. Pleasant              00004459741
201505STC   LS    20031Spring City               00000985112
201505STC   LS    20032Sterling                  00000357163
201505STC   LS    20033Wales                     00000300173
201505STC   LS    21000Sevier County             00003401928
201505STC   LS    21001Annabella                 00000832565
201505STC   LS    21002Aurora                    00001335662
201505STC   LS    21007Central Valley            00000519412
201505STC   LS    21014Elsinore                  00001008738
201505STC   LS    21018Glenwood                  00000422235
201505STC   LS    21025Joseph                    00000347746
201505STC   LS    21029Koosharem                 00000359256
201505STC   LS    21031Monroe                    00002180237
201505STC   LS    21033Redmond                   00000971240
201505STC   LS    21034Richfield                 00017561443
201505STC   LS    21035Salina                    00004755209
201505STC   LS    21038Sigurd                    00000490174
201505STC   LS    22000Summit County             00049661877
201505STC   LS    22006Coalville                 00002087140
201505STC   LS    22013Francis                   00001062008
201505STC   LS    22017Henefer                   00000818171
201505STC   LS    22022Kamas                     00004070721
201505STC   LS    22029Oakley                    00001635249
201505STC   LS    22030Park City                 00028983092
201505STC   LS    23000Tooele County             00021121130
201505STC   LS    23023Grantsville               00010687078
201505STC   LS    23037Ophir                     00000035143
201505STC   LS    23046Stockton                  00000708848
201505STC   LS    23048Tooele City               00047513824
201505STC   LS    23050Vernon                    00000244515
201505STC   LS    23052Wendover                  00001956784
201505STC   LS    23056Rush Valley               00000460918
201505STC   LS    24000Uintah County             00031542920
201505STC   LS    24014Naples                    00018268102
201505STC   LS    24024Vernal                    00041161725
201505STC   LS    24028Ballard                   00004408126
201505STC   LS    25000Utah County               00014907621
201505STC   LS    25001Alpine                    00009932145
201505STC   LS    25002American Fork             00058228645
201505STC   LS    25019Cedar Fort                00000512311
201505STC   LS    25030Eagle Mountain            00022599584
201505STC   LS    25035Fairfield                 00000247923
201505STC   LS    25038Genola                    00001573923
201505STC   LS    25043Goshen                    00000830470
201505STC   LS    25066Lehi                      00080083118
201505STC   LS    25070Lindon                    00030869390
201505STC   LS    25073Mapleton                  00008830524
201505STC   LS    25083Orem                      00172398273
201505STC   LS    25085Payson                    00025056598
201505STC   LS    25088Pleasant Grove            00040746824
201505STC   LS    25090Provo                     00158989219
201505STC   LS    25096Salem                     00007638235
201505STC   LS    25097Santaquin                 00010277354
201505STC   LS    25098Saratoga Springs          00026267219
201505STC   LS    25099Highland                  00017988533
201505STC   LS    25103Spanish Fork              00052307506
201505STC   LS    25106Springville               00041965991
201505STC   LS    25117Vineyard                  00001305677
201505STC   LS    25123Cedar Hills               00011043171
201505STC   LS    25124Elk Ridge                 00002560767
201505STC   LS    25125Woodland Hills            00001305226
201505STC   LS    26000Wasatch County            00008883695
201505STC   LS    26003Charleston                00001163930
201505STC   LS    26005Daniel                    00000985360
201505STC   LS    26008Heber                     00023767648
201505STC   LS    26009Independence              00000257870
201505STC   LS    26011Midway                    00005791311
201505STC   LS    26014Wallsburg                 00000418972
201505STC   LS    26020Hideout                   00000593409
201505STC   LS    27000Washington County         00009791135
201505STC   LS    27002Apple Valley              00000721756
201505STC   LS    27005Enterprise                00001993557
201505STC   LS    27008Hurricane                 00021758178
201505STC   LS    27010Ivins                     00008010595
201505STC   LS    27011La Verkin                 00004548427
201505STC   LS    27012Leeds                     00000836993
201505STC   LS    27015New Harmony Town          00000305433
201505STC   LS    27019Rockville                 00000242462
201505STC   LS    27020St. George                00148425103
201505STC   LS    27021Santa Clara               00006297600
201505STC   LS    27023Springdale                00006083236
201505STC   LS    27024Toquerville               00001282599
201505STC   LS    27026Virgin                    00000644707
201505STC   LS    27027Washington City           00033416551
201505STC   LS    27035Hildale                   00003425195
201505STC   LS    28000Wayne County              00001574925
201505STC   LS    28001Bicknell                  00000448023
201505STC   LS    28005Hanksville                00000418396
201505STC   LS    28007Loa                       00001095561
201505STC   LS    28008Lyman                     00000258390
201505STC   LS    28010Torrey                    00001005260
201505STC   LS    29000Weber County              00018929955
201505STC   LS    29012Farr West                 00009284327
201505STC   LS    29016Harrisville               00010490315
201505STC   LS    29018Hooper                    00007556836
201505STC   LS    29019Huntsville                00000964694
201505STC   LS    29022Marriot-Slaterville       00004938627
201505STC   LS    29026North Ogden               00020710702
201505STC   LS    29027Ogden                     00138889880
201505STC   LS    29030Plain City                00005590403
201505STC   LS    29031Pleasant View             00008956802
201505STC   LS    29036Riverdale                 00036542955
201505STC   LS    29037Roy                       00044594052
201505STC   LS    29040South Ogden               00026874809
201505STC   LS    29043Uintah                    00001723884
201505STC   LS    29049Washington Terrace        00008961858
201505STC   LS    29051West Haven                00019568853
201505STC   CT    03000Cache County              00030582270
201505STC   CT    29000Weber County              00055252329
201505STC   CT    18000Salt Lake County          00354795620
201505STC   MA    06000Davis County              00091058681
201505STC   MA    02017Brigham City              00004480305
201505STC   MA    02086Perry                     00001439131
201505STC   MA    18000Salt Lake County          00378470663
201505STC   MA    02120Willard                   00000144669
201505STC   MA    29000Weber County              00073437575
201505STC   MM    03044Millville                 00000139833
201505STC   MM    25090Provo                     00000025095
201505STC   MM    25070Lindon                    00000002141
201505STC   MM    03033Hyrum                     00001082359
201505STC   MM    03060River Heights             00000078546
201505STC   MM    03098Nibley                    00000450549
201505STC   MM    03056Providence                00000892776
201505STC   MM    25085Payson                    00000003675
201505STC   MM    02120Willard                   00000173389
201505STC   MM    25098Saratoga Springs          00000002411
201505STC   MM    25123Cedar Hills               00000000059
201505STC   MM    03059Richmond                  00000351236
201505STC   MM    25088Pleasant Grove            00000008169
201505STC   MM    02086Perry                     00001724860
201505STC   MM    03062Smithfield                00001522617
201505STC   MM    03038Logan                     00023951692
201505STC   MM    25066Lehi                      00000003226
201505STC   MM    03049North Logan               00004530916
201505STC   MM    25083Orem                      00000122042
201505STC   MM    02017Brigham City              00005370862
201505STC   MM    03032Hyde Park                 00001091517
201505STC   MM    03036Lewiston                  00000281827
201505STC   MM    03900Cache Valley Transit      00000142338
201505STC   MM    22030Park City                 00012866492
201505STC   MM    23048Tooele City               00010902696
201505STC   MM    25001Alpine                    00000000293
201505STC   MM    25030Eagle Mountain            00000002816
201505STC   MM    25099Highland                  00000009185
201505STC   MM    25096Salem                     00000003554
201505STC   MM    25073Mapleton                  00000008175
201505STC   MM    25097Santaquin                 00000009678
201505STC   MM    22000Summit County             00013508810
201505STC   MM    23000Tooele County             00004339077
201505STC   MM    25000Utah County               00000000349
201505STC   MT    25000Utah County               00151949919
201505STC   MT    18000Salt Lake County          00567809038
201505STC   MT    29000Weber County              00073448226
201505STC   MT    06000Davis County              00091068248
201505STC   RA    27023Springdale                00005461360
201505STC   RA    08011Green River               00001704933
201505STC   RA    22030Park City                 00020866382
201505STC   RA    10011Moab                      00013558210
201505STC   RA    17001Garden City               00002068249
201505STC   RA    11028Brian Head                00000510438
201505STC   RA    18003Alta                      00000306322
201505STC   RR    26009Independence              00000233210
201505STC   RR    13007Orderville                00001337971
201505STC   RR    22030Park City                 00046406994
201505STC   RR    13004Kanab                     00008483908
201505STC   RR    09003Bryce Canyon              00005110377
201505STC   RR    08011Green River               00003409567
201505STC   RR    09011Panguitch                 00003319886
201505STC   RR    09002Boulder                   00000565379
201505STC   RR    26011Midway                    00004643191
201505STC   RR    17001Garden City               00004549757
201505STC   RR    18003Alta                      00000612592
201505STC   RR    10011Moab                      00029825040
201505STC   RR    11028Brian Head                00001121275
201505STC   RR    27023Springdale                00012013927
201505STC   RR    09015Tropic                    00001351856
201505STC   RR    09005Escalante                 00001346004
201505STC   RR    19009Monticello                00000000067
201505STC   MH    01002Beaver City               00005824481
201505STC   RH    05000Daggett County            00002162171
201505STC   RH    09000Garfield County           00017302195
201505STC   RH    13000Kane County               00021720377
201505STC   RH    24000Uintah County             00000002974
201505STC   SM    06000Davis County              00018260244
201505STC   SM    29000Weber County              00014732441
201505STC   TO    02100Snowville                 00000439202
201505STC   CZ    22000Summit County             00010262018
201505STC   CZ    29000Weber County              00029364900
201505STC   CZ    18000Salt Lake County          00189175467
201505STC   CZ    24000Uintah County             00012558642
201505STC   CZ    03000Cache County              00012226006
201505STC   MZ    19002Blanding                  00000504913
201505STC   MZ    21033Redmond                   00000070571
201505STC   MZ    21002Aurora                    00000099321
201505STC   MZ    23048Tooele City               00003637082
201505STC   MZ    25083Orem                      00017040165
201505STC   MZ    11003Cedar City                00004616328
201505STC   MZ    19009Monticello                00000246670
201505STC   MZ    21035Salina                    00000489330
201505STC   MZ    04016Helper                    00000169308
201505STC   MZ    06061West Bountiful            00001907215
201505STC   MZ    21034Richfield                 00002010823
201505STC   MZ    07019Roosevelt                 00002582722
201505STC   MZ    20004Centerfield               00000134024
201505STC   MZ    11028Brian Head                00000102638
201505STC   MZ    06004Bountiful                 00004501876
201505STC   MZ    20021Mayfield                  00000007145
201505STC   MZ    06035North Salt Lake           00003641943
201505STC   MZ    06006Centerville               00003045501
201505STC   MZ    07008Duchesne City             00000317010
201505STC   MZ    06057Woods Cross               00002536939
201505STC   MZ    20014Gunnison                  00000237714
201505STC   MZ    25070Lindon                    00004161838
201505STC   MZ    04035Price                     00002449444
201505STC   MZ    25123Cedar Hills               00000385866
201505STE   ET    18122Salt Lake City            00005755545
201505STE   ET    25103Spanish Fork              00001636362
201505STE   ET    03038Logan                     00001732244
201505STE   ET    06057Woods Cross               00000135418
201505STE   ET    11003Cedar City                00000082917
201505STE   ET    18096Murray                    00000885280
201505STE   ET    18118Riverton                  00000175894
201505STE   ET    18131Sandy                     00000054998
201505STE   ET    25002American Fork             00000453980
201505STE   ET    25090Provo                     00000938739
201505STE   ET    26008Heber                     00000186356
201505STE   ET    27020St. George                00009291635
201505STE   ET    29027Ogden                     00002498561
201505STE   ET    02017Brigham City              00000058229
201505STE   ET    03059Richmond                  00000218015
201505STE   ET    06004Bountiful                 00000205609
201505STE   ET    06017Farmington                00000057679
201505STE   ET    06035North Salt Lake           00000133741
201505STE   ET    18039Draper                    00000538375
201505STE   ET    18093Midvale                   00000032979
201505STE   ET    18138South Jordan              00001162096
201505STE   ET    18139South Salt Lake           00000725881
201505STE   ET    18155West Jordan               00001570450
201505STE   ET    18167West Valley City          00002156525
201505STE   ET    22030Park City                 00001154834
201505STE   ET    23048Tooele City               00000103137
201505STE   ET    25066Lehi                      00000797604
201505STE   ET    25083Orem                      00000706836
201505STE   ET    25085Payson                    00000467583
201505STE   ET    25106Springville               00000229088
201505STE   ET    26011Midway                    00000110955
201505STE   ET    07008Duchesne City             00000387590
201505STE   ET    07017Myton                     00000079322
201505STE   ET    07019Roosevelt                 00001434356
201505STE   ET    06061West Bountiful            00000006898
201505STE   ET    27008Hurricane                 00000420801
201505STE   ET    27027Washington City           00002024197
201505STE   ET    29040South Ogden               00000003927
201505STE   ET    25096Salem                     00000018890
201505STE   ET    25097Santaquin                 00000005824
201505STE   ET    03033Hyrum                     00000425766
201505STE   ET    03062Smithfield                00000284024
201505STE   ET    04035Price                     00000034594
201505STE   ET    06006Centerville               00000073218
201505STE   ET    06008Clearfield                00000405112
201505STE   ET    06030Layton                    00000024405
201505STE   ET    02113Tremonton                 00000573460
201505STE   ET    09005Escalante                 00000182362
201505STE   ET    09015Tropic                    00000189009
201505STE   ET    13004Kanab                     00001856073
201505STE   ET    24024Vernal                    00000027686
201505STE   ET    27035Hildale                   00000866100
201505STE   ET    19009Monticello                00000800978
201505STL   FF    06000Davis County              00001012302
201505STL   FF    10000Grand County              00001334269
201505STL   FF    15000Morgan County             00000002006
201505STL   FF    18000Salt Lake County          00042818860
201505STL   FF    21000Sevier County             00000032804
201505STL   FF    24000Uintah County             00000098371
201505STL   FF    25000Utah County               00001590405
201505STL   FF    27000Washington County         00001308277
201505STL   FF    29000Weber County              00000858967
201505STL   FP    06000Davis County              00003532577
201505STL   FP    15000Morgan County             00000083604
201505STL   FP    18000Salt Lake County          00048638944
201505STL   FP    21000Sevier County             00000198146
201505STL   FP    25000Utah County               00005918372
201505STL   FP    27000Washington County         00002408510
201505STL   FP    29000Weber County              00002718006
201505STR   TR    01000Beaver County             00004226067
201505STR   TR    02000Box Elder County          00002753385
201505STR   TR    03000Cache County              00004800211
201505STR   TR    04000Carbon County             00002596068
201505STR   TR    05000Daggett County            00001236064
201505STR   TR    06000Davis County              00014825710
201505STR   TR    07000Duchesne County           00002169343
201505STR   TR    08000Emery County              00006020300
201505STR   TR    09000Garfield County           00028579747
201505STR   TR    10000Grand County              00051483067
201505STR   TR    11000Iron County               00014202235
201505STR   TR    12000Juab County               00001818852
201505STR   TR    13000Kane County               00025444064
201505STR   TR    14000Millard County            00001355342
201505STR   TR    15000Morgan County             00000034209
201505STR   TR    16000Piute County              00000673828
201505STR   TR    17000Rich County               00004536212
201505STR   TR    18000Salt Lake County          00136293170
201505STR   TR    19000San Juan County           00012018281
201505STR   TR    20000Sanpete County            00001582008
201505STR   TR    21000Sevier County             00005527427
201505STR   TR    22000Summit County             00029210418
201505STR   TR    23000Tooele County             00004527261
201505STR   TR    24000Uintah County             00009447016
201505STR   TR    25000Utah County               00024517499
201505STR   TR    26000Wasatch County            00008702896
201505STR   TR    27000Washington County         00061858039
201505STR   TR    28000Wayne County              00005531372
201505STR   TR    29000Weber County              00013271874
201505STR   TA    07019Roosevelt                 00000033752
201505STR   TA    10011Moab                      00004500780
201505STR   TA    18131Sandy                     00001114147
201505STR   TA    18167West Valley City          00000922735
201505STR   TA    25090Provo                     00001177864
201505STR   TA    25106Springville               00000197986
201505STR   TM    01008Milford                   00000067582
201505STR   TM    02017Brigham City              00000212040
201505STR   TM    02086Perry                     00000067881
201505STR   TM    02113Tremonton                 00000301419
201505STR   TM    03038Logan                     00001355408
201505STR   TM    03049North Logan               00000189007
201505STR   TM    04035Price                     00000558576
201505STR   TM    06008Clearfield                00000074868
201505STR   TM    06017Farmington                00000189895
201505STR   TM    06030Layton                    00002061848
201505STR   TM    06035North Salt Lake           00000448652
201505STR   TM    06048Sunset                    00000128593
201505STR   TM    06057Woods Cross               00000402914
201505STR   TM    06061West Bountiful            00000149738
201505STR   TM    07019Roosevelt                 00000067504
201505STR   TM    08011Green River               00001297726
201505STR   TM    09005Escalante                 00000417732
201505STR   TM    10011Moab                      00009001554
201505STR   TM    11003Cedar City                00002858226
201505STR   TM    11028Brian Head                00000382142
201505STR   TM    13002Glendale                  00000034455
201505STR   TM    13004Kanab                     00002772052
201505STR   TM    14010Delta                     00000181665
201505STR   TM    14014Fillmore                  00000266231
201505STR   TM    18020Cottonwood Heights        00000215473
201505STR   TM    18039Draper                    00000618104
201505STR   TM    18065Holladay                  00000678182
201505STR   TM    18093Midvale                   00001303324
201505STR   TM    18096Murray                    00001468438
201505STR   TM    18122Salt Lake City            00026982877
201505STR   TM    18131Sandy                     00002228295
201505STR   TM    18138South Jordan              00000660983
201505STR   TM    18139South Salt Lake           00000355992
201505STR   TM    18155West Jordan               00000250699
201505STR   TM    18167West Valley City          00001845469
201505STR   TM    19002Blanding                  00000657909
201505STR   TM    19009Monticello                00000450098
201505STR   TM    21034Richfield                 00000727869
201505STR   TM    21035Salina                    00000302272
201505STR   TM    23048Tooele City               00000355478
201505STR   TM    24014Naples                    00000096292
201505STR   TM    24024Vernal                    00001765022
201505STR   TM    24028Ballard                   00000356727
201505STR   TM    25066Lehi                      00000949455
201505STR   TM    25083Orem                      00001056178
201505STR   TM    25085Payson                    00000074509
201505STR   TM    25090Provo                     00002355734
201505STR   TM    25106Springville               00000395971
201505STR   TM    26008Heber                     00000449364
201505STR   TM    26011Midway                    00000664282
201505STR   TM    27008Hurricane                 00001172095
201505STR   TM    27010Ivins                     00000995736
201505STR   TM    27011La Verkin                 00000006483
201505STR   TM    27019Rockville                 00000036728
201505STR   TM    27020St. George                00005912636
201505STR   TM    27021Santa Clara               00000019938
201505STR   TM    27023Springdale                00004479080
201505STR   TM    27026Virgin                    00000138704
201505STR   TM    28005Hanksville                00000097564
201505STR   TM    29012Farr West                 00000096324
201505STR   TM    29022Marriot-Slaterville       00000282923
201505STR   TM    29027Ogden                     00001476656
201505STR   TM    29036Riverdale                 00000081580
201505STR   TM    29043Uintah                    00000084302
201505STR   TM    29051West Haven                00000601021
201505STR   TT    18000Salt Lake County          00018864105
